:020000040800F2
:10000000B8090020A9010008B1010008B3010008E7
:10001000B5010008B7010008B901000800000000A0
:10002000000000000000000000000000BB0100080C
:10003000BD01000800000000BF010008853700086E
:10004000C3010008C3010008C3010008C301000880
:10005000C3010008C3010008A7090008BD09000882
:10006000C3010008C3010008C3010008C301000860
:10007000C3010008C3010008C3010008C301000850
:10008000C3010008C3010008C3010008000000000C
:10009000000000000000000000000000C301000894
:1000A000C3010008C3010008C3010008C301000820
:1000B000C3010008C3010008C3010008C301000810
:1000C000C3010008C3010008C3010008C301000800
:1000D000C3010008C30100088D3D000800000000B6
:1000E000B1090008C3010008C301000800000000B6
:1000F000000000000000000000000000C301000834
:1001000000000000C3010008C3010008C30100088B
:1001100000000000000000000000000000000000DF
:10012000C3010008C3010008C3010008C30100089F
:10013000C3010008000000000000000000000000F3
:10014000000000000000000000000000C3010008E3
:10015000C3010008C3010008C3010008C30100086F
:10016000C3010008C30100080000000000000000F7
:10017000000000000000000000000000000000007F
:1001800000000000C30100080000000000000000A3
:10019000C3010008DFF80CD000F044F80048004725
:1001A000394E0008B8090020064880470648004735
:1001B000FEE7FEE7FEE7FEE7FEE7FEE7FEE7FEE717
:1001C000FEE7FEE7293800089501000800F000422C
:1001D00030F000400AD0C10D01F56071C0F3160087
:1001E00042EA0151C208400711437047002001460E
:1001F0007047000030B5041E71F1000404DB4FF0BD
:100200000044404264EB0101141E73F1000405DB5D
:100210001C464FF00043524263EB04038B4208BF7D
:10022000824230BD064C074D06E0E06840F0010315
:1002300094E8070098471034AC42F6D3FFF7AEFFBE
:10024000AC570008CC57000870B58C1810F8015B4B
:1002500015F0070301D110F8013B2A1106D110F85F
:10026000012B03E010F8016B01F8016B5B1EF9D163
:100270002B0705D40023521E0DD401F8013BFAE7E9
:1002800010F8013BCB1A921C03E013F8015B01F854
:10029000015B521EF9D5A142D8D3002070BD0000E9
:1002A00070B50446024D2146284600F021F870BD85
:1002B000F002002070B50446024D2146284600F0A9
:1002C00017F870BD0803002070B50446024D2146A2
:1002D000284600F00DF870BD2003002070B50446DC
:1002E000024D2146284600F003F870BD3803002077
:1002F00070B504460D46207861698847E06841681A
:10030000284688472069416805F15800884770BD34
:10031000034A11895068002200F0C2FD00BFFEE7C9
:100320005003002000B50246002000F035FB90424B
:1003300001D10E4800BD012000F02EFB904202D1F9
:100340000A481830F6E7022000F026FB904202D15E
:1003500006483030EEE7032000F01EFB904202D149
:1003600002484830E6E70020E4E70000F002002001
:1003700010B50446012C06D1062000F00FFE072020
:1003800000F00CFE05E0062000F0F0FD072000F074
:10039000EDFD10BD10B5002000F0FEFA034600F0A0
:1003A000C7FA00F0F7F900F0E3F80120FFF7E0FFEB
:1003B00010BD000070B50446024D2146284602F0EB
:1003C0008FF970BD1001002070B50446024D214622
:1003D000284602F085F970BD4C01002070B5044636
:1003E000024D2146284602F07BF970BD88010020AD
:1003F00070B50446024D2146284602F071F970BDE1
:10040000C401002070B50446024D2146284602F082
:1004100067F970BD0002002070B50446024D214608
:10042000284602F05DF970BD3C02002070B504461C
:10043000024D2146284602F053F970BD7802002093
:1004400070B50446024D2146284602F049F970BDB8
:10045000B402002000BF704770B506460C46154632
:10046000304600F065FA20B12946204602F0C2F875
:1004700070BDFF20FCE700BF704770B506460C4614
:100480001546304600F054FA20B12946204602F0C5
:10049000ABFA70BDFF20FCE770B505460C46284658
:1004A00000F046FA18B1204602F0DAFA70BD0020DA
:1004B000FCE770B505460C46284600F039FA10B145
:1004C000204602F0EFFA70BD70B505460C4628468E
:1004D00000F02EFA10B1204602F0FEFA70BD70B5A1
:1004E00006460C461546304600F022FA18B1294659
:1004F000204602F00BFB70BD2DE9F04107460C468B
:1005000015461E46384600F013FA20B132462946F9
:10051000204602F019FBBDE8F0812DE9F0410746C5
:100520000C4615461E46DDF81880384600F000FAE5
:1005300028B1434632462946204602F025FBBDE855
:10054000F08170B505460C46284600F0F1F910B16F
:10055000204602F037FB70BD70B505460C462846B4
:1005600000F0E6F910B1204602F046FB70BD000035
:1005700070B51D4A11895068002200F091FC1A4A9A
:1005800011895068012200F08BFC002000F004FA71
:1005900004461CE0204600F0CBF9144A118950684B
:1005A000012200F07DFC002002F040FB054607E040
:1005B000284602F015FE284602F052FA681CC5B221
:1005C000012002F033FBA842F2DA601CC4B2002022
:1005D00000F0E2F9A042DDDA002000F0DDF9034688
:1005E00000F0A6F970BD000050030020B003002009
:1005F0002DE9F04107460C4615461E46384600F0E8
:1006000097F920B132462946204602F019FBBDE891
:10061000F0812DE9F04107460C4615461E46384646
:1006200000F086F920B132462946204602F0A6FDA8
:10063000BDE8F08170B505460C46284600F078F913
:1006400010B1204602F0CCFD70BD70B505460C46D9
:10065000284600F06DF910B1204602F0DBFD70BDB8
:100660002DE9F04107460C4615461E46384600F077
:100670005FF920B132462946204602F0E5FDBDE88B
:10068000F0812DE9F04107460C4615461E463846D6
:1006900000F04EF920B132462946204602F0F0FD26
:1006A000BDE8F08170B505460C46284600F040F9DB
:1006B00010B1204602F000FE70BD70B505460C4634
:1006C000284600F035F910B1204602F00FFE70BD4B
:1006D00070B506460C461546304600F029F918B1AB
:1006E0002946204602F01CFE70BD000010B586B001
:1006F000044600BF6CB900BF1348006840F0010019
:10070000114908600846006800F00100009000BF31
:1007100000BF00BF0D4830F8140001900120029086
:100720000390022004900A4951F8240001A900F026
:10073000F9F9064A32F81410054A52F8240000224A
:1007400000F0AEFB06B010BD30380240D2520008B7
:10075000B400002010B50446044A32F81410044ACC
:1007600052F82400002200F09BFB10BDD25200087A
:10077000B400002010B50446044A32F81410044AAC
:1007800052F82400012200F08BFB10BDD252000869
:10079000B400002010B586B03848006838490968B0
:1007A00008433649086036480089019011200290BC
:1007B00000200390032004903149486801A900F00B
:1007C000B1F92E4800682F49096808432B49086091
:1007D0002C48008901902C48029000200390294960
:1007E000486801A900F09EF900221146062000F099
:1007F000EDFB224800682549096808431F49086045
:1008000022480089019020480290002003901F494F
:10081000486801A900F086F900221146072000F07F
:10082000D5FB002000F0B8F8044620E0134800682B
:1008300004EB4401164A52F8211008430F4908609E
:1008400004EB4400114601EB800000890190012077
:100850000290002003900320049004EB440102EB7B
:100860008101486801A900F05DF9601CC4B2002054
:1008700000F092F8A042D9DA06B010BD303802403C
:10088000500300205C0300200000211068030020BA
:100890007403002030B587B004460D4600BF6CB924
:1008A00000BF1E48006840F004001C49086008466C
:1008B000006800F00400019000BF00BF00BF75B9E0
:1008C000174830F814000290002003900220049092
:1008D0000590144951F8240002A900F023F9012DD4
:1008E00019D10F4830F814000290002004900E48EF
:1008F00003900C4951F8240002A900F013F90B49A8
:10090000095D48B200220F2100F060FB0749095D34
:1009100048B200F043FB07B030BD00003038024061
:10092000D4520008B800002000002110D652000860
:100930000146012918DA01EB41000C4A52F8200067
:100940000B4A106001EB4100084A02EB800040684E
:10095000074A506001EB4100044A02EB8000008925
:10096000034A1081012070470020FCE77403002037
:10097000B003002030B504460D46002100BF625C84
:100980006B5C9A4201D0002030BD481CC1B20AB154
:10099000002BF4D10120F7E70146012901DA0846CE
:1009A0007047FF20FCE710B5012000F0ADF810BD46
:1009B00010B54FF4005000F0A7F810BD10B502209C
:1009C00000F0A2F810BD000030B530213022002028
:1009D0006FE00A2804DA00F13003DAB200210DE0FA
:1009E0000A2390FBF3F33033DAB20A2390FBF3F3DC
:1009F00003EB8303A0EB43033033D9B24C2300EB6A
:100A0000800404EBC0042C4D2B55362300EB8004EE
:100A100004EBC0042C446370342300EB800404EB2B
:100A2000C0042C44A370372300EB800404EBC00403
:100A30002C44E370302300EB800404EBC0042C440E
:100A40002371232300EB800404EBC0042C44637166
:100A500000EB800303EBC0032C4623449A7100EBA8
:100A6000800303EBC0032344D971002300EB80040F
:100A700004EBC0042C4423724D2300EB800404EBF0
:100A8000C0042C44637200EB800303EBC0032C46CC
:100A900023449A7200EB800303EBC0032344D97212
:100AA000002400EB800303EBC0032B441C73431CA6
:100AB000D8B202288DDB30BDF0040020004870471A
:100AC000D852000831B5002400F008FA044600BFEF
:100AD00000F004FA001B00998842F9D338BD10B524
:100AE0000446012C07D0022C08D0B4F5005F08D1D1
:100AF000FFF70EFC05E0FFF7ADFC02E0FFF7BBFCE3
:100B000000BF00BF10BD000010B5044604480068D7
:100B1000204020B1024804602046FFF7E0FF10BDEE
:100B2000143C01402DE9F84306460C464FF00009FD
:100B3000C8460025CA4886420ED0CA4886420BD015
:100B4000C948864208D0C948864205D0C84886426E
:100B500002D0C848864200D103E0C521C64804F04F
:100B600005F9208880B200B103E0C621C24804F034
:100B7000FDF8606830B36068012823D060681128F0
:100B800020D0606802281DD0606812281AD0BB49A6
:100B90006068884216D0BA496068884212D0B94964
:100BA000606888420ED0B849606888420AD0B74968
:100BB0006068884206D0B6496068884202D06068A2
:100BC000032800D103E0C721AB4804F0CFF8A068A8
:100BD00028B1A068012802D0A068022800D103E053
:100BE000C821A54804F0C2F8002734E1012000FA2A
:100BF00007F9206800EA0908C8457DD16068022825
:100C000002D06068122863D12069E8B320690928FE
:100C100045D02069C0B32069B0B32069A0B3206972
:100C200090B3206901283AD02069012837D0206983
:100C3000022834D02069022831D0206902282ED021
:100C4000206904282BD02069042828D02069042892
:100C500025D02069052822D0206905281FD02069C9
:100C600006281CD02069052819D02069072816D02D
:100C70002069072813D02069082810D020690A2885
:100C80000DD02069092800E009E008D02069092872
:100C900005D020690C2802D020690F2800D103E07C
:100CA000D921754804F062F8F90806F1200050F8DF
:100CB00021507807C10E0F20884085437907C90E5F
:100CC000206988400543F90806F1200040F82150CA
:100CD00035687900032088408543207900F00300BF
:100CE0007900884005433560606801280AD0606853
:100CF000022807D0606800E0ACE0112802D06068EC
:100D0000122823D1E06840B1E068012805D0E068EE
:100D1000022802D0E068032800D103E0EC21564805
:100D200004F024F8B56879000320884085437900F1
:100D3000E06888400543B56075680120B840854388
:100D40002079C0F30010B84005437560F56879005C
:100D50000320884085437900A06888400543F560FA
:100D6000606800F08050B0F1805F73D100BF4948E7
:100D7000006840F48040474908600846006800F475
:100D80008040009000BF00BF4348B90850F8215090
:100D9000B807010F0F20884085433148864201D1B2
:100DA000002014E02F48864201D101200FE02E4898
:100DB000864201D102200AE02C48864201D103205C
:100DC00005E02B48864201D1042000E00520B90748
:100DD000090F884005433048B90840F821502F4892
:100DE000056825EA0805606800F48030B0F5803FAA
:100DF00001D145EA080529480560001D056825EA76
:100E00000805606800F40030B0F5003F01D145EA04
:100E100008052248001D0560001D056825EA080533
:100E2000606800F48010B0F5801F01D145EA080524
:100E30001A4808300560001D056825EA0805606845
:100E400000F40010B0F5001F01D145EA0805134871
:100E50000C3005607F1C102FFFF4C8AEBDE8F8838E
:100E6000000002400004024000080240000C024062
:100E700000100240001C024034560008000011100F
:100E8000000021100000311000001210000022109C
:100E9000000032104438024008380140003C014054
:100EA00070B506460C461546A0B200B104E040F20B
:100EB000B111094803F05AFF0DB1012D00D104E032
:100EC0004FF4D971044803F051FF0DB1B46101E052
:100ED0002004B06170BD000034560008014800686D
:100EE00070470000B000002002480068401C014923
:100EF00008607047B000002010B50D48006840F44D
:100F000000700B4908600846006840F48060086083
:100F10000846006840F480700860032000F0A4F8E0
:100F2000002000F007F800F017F8002010BD0000C6
:100F3000003C024070B5044600F0CCFA4FF47A71E0
:100F4000B0FBF1F5284601F018F900222146501EA9
:100F500000F03CF8002070BD10B5072000F084F8C8
:100F600000221146501E00F031F810BD10B50446A5
:100F7000002C00DB03E0E021064803F0F7FE00BF91
:100F800004F01F01012088400349620941F8220052
:100F900000BF10BDE455000880E100E010B5044634
:100FA000002C00DB03E0D021074803F0DFFE00BF88
:100FB00004F01F01012088406109890001F1E0214E
:100FC000C1F8000100BF10BDE45500082DE9F05F35
:100FD00080460C4615460027102D00D203E0BC21A8
:100FE000204803F0C3FE102C00D203E0BD211D48B1
:100FF00003F0BCFE02F07EFA0746394622462B4635
:1010000001F00700C0F1070ABAF1040F02D94FF04E
:10101000040A01E0C0F1070AD14600F1040ABAF15E
:10102000070F02D24FF0000A01E0A0F1030AD446F4
:101030004FF0010A0AFA09FAAAF1010A0AEA020AB9
:101040000AFA0CFA4FF0010B0BFA0CFBABF1010B97
:101050000BEA030B4AEA0B063146404602F052FA0D
:10106000BDE8F09FE455000810B50446072C07D0F2
:10107000062C05D0052C03D0042C01D0032C00D164
:1010800003E0A421094803F071FE00BF04F007014A
:10109000074A10684FF6FF021040064A024342EA30
:1010A0000120034A106000BF10BD0000E455000895
:1010B0000CED00E00000FA0570B504460D46002670
:1010C0002068012803D320680F2800D804E04FF4DB
:1010D0001871FD4803F04AFE6DB1012D0BD0022DB1
:1010E00009D0032D07D0042D05D0052D03D0062DE2
:1010F00001D0072D00D104E040F26121F24803F055
:1011000035FEF248006800F00F00A8427CD2EF499B
:101110000D700846006800F00F00A84201D00120C1
:1011200070BD207800F00200022827D1A068B8B175
:10113000A068802814D0A068902811D0A068A028AA
:101140000ED0A068B0280BD0A068C02808D0A06836
:10115000D02805D0A068E02802D0A068F02800D1EF
:1011600004E040F27721D84803F000FED848006838
:1011700020F0F000A1680843D5490860207800F00D
:101180000100002850D0606840B16068012805D097
:101190006068022802D06068032800D104E040F2B1
:1011A0007E21C94803F0E2FD6068012807D1C848E4
:1011B00008380068C0F34040B8B90120B0E7606863
:1011C000022802D06068032807D1C14808380068A7
:1011D000C0F3406048B90120A2E7BD480838006864
:1011E000C0F3400008B901209AE7B948006820F030
:1011F000030061680843B6490860FFF76FFE0646C2
:101200006068012811D109E048E0FFF767FE801B04
:1012100041F28831884201D9032081E7AC48006857
:1012200000F00C000428F0D1FDE06068022810D125
:1012300008E0FFF753FE801B41F28831884201D954
:1012400003206DE7A248006800F00C000828F0D1E8
:10125000E9E06068032810D108E0FFF73FFE801B3B
:1012600041F28831884201D9032059E79848006843
:1012700000F00C000328F0D1D5E008E0FFF72EFEC7
:10128000801B41F28831884201D9032048E7904809
:10129000006800F00C000028F0D1C4E0207800F0D5
:1012A0000200022827D1A068B8B1A068802814D015
:1012B000A068902811D0A068A0280ED0A068B028FF
:1012C0000BD0A068C02808D0A068D02805D0A0689E
:1012D000E02802D0A068F02800D104E040F2D1213B
:1012E000794803F043FD7A48006820F0F000A168D7
:1012F000084377490860207800F0010000284FD0AB
:10130000606840B16068012805D06068022802D09A
:101310006068032800D104E04FF436716A4803F096
:1013200025FD6068012807D1694808380068C0F3C6
:101330004040B8B90120F3E66068022802D0606836
:10134000032807D1624808380068C0F3406048B9F4
:101350000120E5E65E4808380068C0F3400008B99F
:101360000120DDE65A48006820F003006168084368
:1013700057490860FFF7B2FD06466068012810D1A2
:1013800008E0FFF7ABFD801B41F28831884201D9AC
:101390000320C5E64E48006800F00C000428F0D198
:1013A00037E06068022810D108E0FFF797FD801B46
:1013B00041F28831884201D90320B1E644480068EF
:1013C00000F00C000828F0D123E06068032810D159
:1013D00008E0FFF783FD801B41F28831884201D984
:1013E00003209DE63A48006800F00C000328F0D185
:1013F0000FE008E0FFF772FD801B41F28831884260
:1014000001D903208CE63248006800F00C00002867
:10141000F0D12E490D700846006800F00F00A84278
:1014200001D001207CE6207800F0040004281FD1C0
:10143000E06878B1E068B0F5805F0BD0E068B0F5A7
:10144000A05F07D0E068B0F5C05F03D0E068B0F5FA
:10145000E05F00D104E040F232311B4803F086FC2B
:101460001B48006820F4E050E16808431849086010
:10147000207800F00800082820D1206978B1206980
:10148000B0F5805F0BD02069B0F5A05F07D0206970
:10149000B0F5C05F03D02069B0F5E05F00D104E093
:1014A00040F23931084803F061FC0948006820F433
:1014B0006040216940EAC100054908600020FFF74B
:1014C00039FD00202CE6000098550008003C024041
:1014D0000838024010B500F045F80949096801F0E4
:1014E000F001F02292FAA2F2B2FA82F2D140054A59
:1014F000515CC840044908600846006810BD0000FF
:1015000008380240C25200088C03002010B5FFF7D3
:10151000E1FF0749096801F4E0514FF4E05292FA03
:10152000A2F2B2FA82F2D140024A515CC84010BD28
:1015300008380240C252000810B5FFF7CBFF074938
:10154000096801F460414FF4604292FAA2F2B2FAE3
:1015500082F2D140024A515CC84010BD08380240B6
:10156000C252000870B50021002200230020274C41
:10157000246804F00C0424B1042C04D0082C41D1BC
:1015800003E0234840E023483EE0204C241F246829
:1015900004F03F011D4C241F246804F4800484B12E
:1015A0001C4CB4FBF1F5194C241F246847F6C07697
:1015B000344096FAA6F6B6FA86F6F44005FB04F235
:1015C0000FE0134CB4FBF1F5104C241F246847F6D0
:1015D000C076344096FAA6F6B6FA86F6F44005FBD5
:1015E00004F20A4C241F246804F440344FF44035BC
:1015F00095FAA5F5B5FA85F5EC40641C6300B2FBDD
:10160000F3F001E0024800BF00BF70BD083802409F
:101610000024F40000127A0038B504460025206842
:101620000F2800D804E04FF48071FA4803F09EFBC5
:10163000207800F00100002874D0606828B160684C
:10164000012802D06068052800D104E040F20511AD
:10165000F04803F08BFBF048006800F00C00042811
:101660000DD0ED48006800F00C00082813D1EA48BE
:10167000001F006800F48000B0F5800F0BD1E64831
:1016800008380068C0F3404000284BD0606800284C
:1016900048D1012038BD0020DF49891F0870FFF7BD
:1016A0001DFC054608E0FFF719FC401B41F288319C
:1016B000884201D90320EDE7D74808380068C0F315
:1016C00040400028EFD12079D349891F0870606815
:1016D000A0B1FFF703FC054608E0FFF7FFFB401B46
:1016E00041F28831884201D90320D3E7CA4808383B
:1016F0000068C0F340400028EFD013E0FFF7EEFB96
:10170000054608E0FFF7EAFB401B41F288318842BA
:1017100001D90320BEE7C04808380068C0F3404044
:101720000028EFD1207800F0020002287DD1E06887
:1017300010B1E068012800D104E04FF4A371B5486E
:1017400003F014FB20691F2800D804E040F2471181
:10175000B04803F00BFBB048006800F00C0058B133
:10176000AD48006800F00C00082821D1AA48001FED
:10177000006800F48000D8B9A74808380068C0F3B2
:10178000400020B1E068012801D0012082E7A24892
:101790000838006820F0F800F82292FAA2F2B2FAB3
:1017A00082F22169914008439B49083908603CE076
:1017B000E06828B3012099490860FFF78FFB0546D0
:1017C00006E0FFF78BFB401B642801D9032061E78B
:1017D000914808380068C0F340000028F1D08E48D6
:1017E0000838006820F0F800F82292FAA2F2B2FA63
:1017F00082F221699140084387490839086014E062
:10180000002086490860FFF769FB054606E0FFF700
:1018100065FB401B642801D903203BE77E4808385C
:101820000068C0F340000028F1D1207800F00800E3
:10183000082837D1606910B16069012800D104E03F
:1018400040F28711734803F091FA6069A8B1012052
:1018500073490860FFF742FB054606E0FFF73EFBD1
:10186000401B642801D9032014E76B486C300068E2
:10187000C0F340000028F1D014E00020684908605F
:10188000FFF72CFB054606E0FFF728FB401B64280A
:1018900001D90320FEE660486C300068C0F34000C8
:1018A0000028F1D1207800F0040004287BD1A06842
:1018B00028B1A068012802D0A068052800D104E062
:1018C00040F2B111534803F051FA00BF524838308A
:1018D000006840F080505049383108600846006880
:1018E00000F08050009000BF00BF4E48006840F4F8
:1018F00080704C490860FFF7F1FA054606E0FFF7F3
:10190000EDFA401B642801D90320C3E6454800686E
:1019100000F480700028F2D000203F496831087040
:10192000FFF7DCFA054608E0FFF7D8FA401B41F262
:101930008831884201D90320ACE637486830006816
:10194000C0F340000028EFD1207A33496831087095
:10195000A068A0B1FFF7C2FA054608E0FFF7BEFA9B
:10196000401B41F28831884201D9032092E62A487F
:1019700068300068C0F340000028EFD013E0FFF7A4
:10198000ADFA054608E0FFF7A9FA401B41F288319D
:10199000884201D903207DE61F4868300068C0F303
:1019A00040000028EFD1A06928B1A069012802D029
:1019B000A069022800D104E040F2F511154803F0B7
:1019C000D5F9A06900287DD01348006800F00C000C
:1019D000082878D0A069022876D1E06918B1E069BA
:1019E000B0F5800F00D104E04FF4FF71094803F017
:1019F000BDF9206A3F2800D804E040F2FF110548F5
:101A000003F0B4F9606AC0280ED3606AB0F5D87FDD
:101A10000AD80EE0985500080838024000004742F6
:101A2000800E4742007000404FF40071454803F0BB
:101A30009DF9A06A022808D0A06A042805D0A06AEF
:101A4000062802D0A06A082800D104E040F2012153
:101A50003C4803F08BF9E06A042803D3E06A0F28BE
:101A600000D804E040F20221364803F07FF900205C
:101A700035490866FFF732FA054606E0FFF72EFA09
:101A8000401B642801D9032004E630480068C0F3F5
:101A900040600028F2D1D4E90701084347F6C0723C
:101AA00092FAA2F2B2FA82F2616A914008430122EC
:101AB000A16AC2EB51014FF4403292FAA2F2B2FA9B
:101AC00082F202E03BE038E022E0914008434FF030
:101AD000706292FAA2F2B2FA82F2E16A914008438D
:101AE0001A49091D0860012017490866FFF7F6F931
:101AF000054606E0FFF7F2F9401B642801D90320F0
:101B0000C8E512480068C0F340600028F2D016E033
:101B100000200D490866FFF7E1F9054606E0FFF7EA
:101B2000DDF9401B642801D90320B3E507480068AC
:101B3000C0F340600028F2D101E00120AAE50020B6
:101B4000A8E5000098550008000047420038024010
:101B500010B504460CB9012010BD606818B160686A
:101B6000B0F5827F00D103E0B821624803F0FEF8AF
:101B7000A06838B1A068B0F5806F03D0A068B0F558
:101B8000004F00D103E0B9215A4803F0EFF8E068B4
:101B9000B0F5006F01D0E06800B903E0BA21554804
:101BA00003F0E4F8206910B12069022800D103E0B5
:101BB000BB21504803F0DAF8606910B16069012870
:101BC00000D103E0BC214B4803F0D0F8A069B0F588
:101BD000007F05D0A06918B1A069B0F5802F00D1B1
:101BE00003E0BD21434803F0C1F8E069A0B1E0691A
:101BF000082811D0E06910280ED0E06918280BD011
:101C0000E069202808D0E069282805D0E06930285C
:101C100002D0E069382800D103E0BE21354803F046
:101C2000A5F8206A10B1206A802800D103E0BF2106
:101C3000304803F09BF8606A10B1606A102800D148
:101C400003E0C0212B4803F091F8A06A18B1A06A04
:101C5000B0F5005F00D103E0C121264803F086F80B
:101C6000E06A20B1E06AB0F5803F00D203E0C22113
:101C7000204803F07BF894F8510028B9002084F83C
:101C80005000204600F038F8022084F85100206807
:101C9000006820F0400021680860D4E90101084391
:101CA000E16808432169084361690843218B01F415
:101CB00000710843E1690843216A0843A16A0843A7
:101CC000216808600421A06901EA1040616A0843A4
:101CD000216848602168E06A08612068C06920F4D2
:101CE00000602168C86100206065012084F851000F
:101CF000002031E78056000810B586B004463F4901
:101D00002068884247D100BF3D48006840F001008C
:101D10003B4908600846006800F00100009000BFE1
:101D200000BF00BF0846006840F002000860084697
:101D3000006800F00200009000BF00BF00BF304804
:101D40001430006840F480502D4914310860084672
:101D5000006800F48050009000BF00BFC0200190D8
:101D6000022002900020039003200490052005909B
:101D700001A92448FEF7D6FE082001900220029017
:101D800000200390032004900520059001A91E481F
:101D9000FEF7C8FE30E01D49206888422CD100BF04
:101DA0001748006840F002001549086008460068BE
:101DB00000F00200009000BF00BF00BF10481030CC
:101DC000006840F480400E49103108600846006801
:101DD00000F48040009000BF00BF4FF460400190CD
:101DE000022002900020039003200490052005901B
:101DF00001A90548FEF796FE06B010BD003001406F
:101E00003038024000000240000402400038004028
:101E10002DE9F84F04460E4617461D46DDF828907A
:101E20004FF00008C24694F85180B8F1010F02D07B
:101E3000B8F1220F73D10EB107B115B90120BDE879
:101E4000F88FA06800B904E04FF42671C94802F089
:101E50008DFF00BF94F85000012801D10220EEE769
:101E6000012084F8500000BF94F85100012802D1ED
:101E7000322084F8510000206065A763A587E587BC
:101E80002663A586E586A064E064A06AB0F5005FDD
:101E90000DD100BF2068006820F400502168086060
:101EA0002068006840F400502168086000BF206886
:101EB000006800F04000402805D02068006840F02D
:101EC000400021680860E068B0F5006F75D1606877
:101ED00030B16068B0F5827F0CD1E08E012809D165
:101EE000206B00882168C860206B801C2063E08E16
:101EF000401EE086E08EF0B9A06AB0F5005F05D123
:101F00002068006840F48050216808604B46002239
:101F10000121204601F00AFB10B103208FE726E1E2
:101F20002068C068A16B0880A06B801CA063E08F54
:101F3000401EE087C6E031E04B46002202212046E9
:101F400001F0F4FA08B1032079E7206B00882168DA
:101F5000C860206B801C2063E08E401EE086E08E0F
:101F600048B9A06AB0F5005F05D12068006840F468
:101F70008050216808604B4600220121204601F074
:101F8000D5FA08B103205AE72068C068A16B088021
:101F9000A06B801CA063E08F401EE087E08E0028CD
:101FA000CADC60680028C5D14B46002201212046CA
:101FB00001F0BCFA10B1032041E70AE02068C068D4
:101FC000A16B0880A06B801CA063E08F401EE0879F
:101FD00078E0606830B16068B0F5827F0BD1E08E48
:101FE000012808D1216B481C206308782168C8604B
:101FF000E08E401EE086E08ED0B9A06AB0F5005FAA
:1020000005D12068006840F48050216808604B4684
:1020100000220121204601F089FA08B103200EE7D1
:102020002068C068A16B0870E08F401EE08749E01F
:1020300030E04B4600220221204601F077FA08B139
:102040000320FCE6216B481C206308782168C860E7
:10205000E08E401EE086E08E48B9A06AB0F5005FD1
:1020600005D12068006840F48050216808604B4624
:1020700000220121204601F059FA08B10320DEE6D2
:102080002068C068C1B2A26B501CA0631170E08FC1
:10209000401EE087E08E0028CBDC606890B94B469C
:1020A00000220121204601F041FA08B10320C6E6D2
:1020B0002068C068C1B2A26B501CA0631170E08F91
:1020C000401EE087A06AB0F5005F12D14B460022A7
:1020D0000121204601F02AFA28B1606D40F002008B
:1020E00060650320ABE62068C06880B20090BDF850
:1020F00000004B4601228021204601F017FA28B14A
:10210000606D40F020006065032098E6012084F8AF
:10211000510020688068C0F3001AA06AB0F5005F23
:102120001FD1BAF1000F1CD0606D40F00200606555
:10213000A06AB0F5005F0DD100BF2068006820F4F0
:102140000050216808602068006840F40050216851
:10215000086000BF00BF002084F8500000BF0120CD
:102160006DE600BF002084F8500000BF67E6022043
:1021700065E6000080560008704770B504462546A5
:10218000681EB0F1807F01D301200FE0681E4FF080
:10219000E02148610F214FF0FF3001F0B3F900203A
:1021A0004FF0E021886107200861002070BD10B564
:1021B000FFF7E2FF10BD7047F8B504460025002682
:1021C0002068006800F001052068C06800F480768F
:1021D0006DB166B100BF206800680090206840685B
:1021E000009000BF00BFE06B40F00100E06320689A
:1021F0000068C0F340052068406900F001066DB139
:1022000066B100BF206800680090206840680090B8
:1022100000BF00BFE06B40F00400E063206800688E
:10222000C0F380052068406900F001066DB166B119
:1022300000BF20680068009020684068009000BFE0
:1022400000BFE06B40F00200E06320680068C0F36C
:10225000C0052068406900F001066DB166B100BF9D
:1022600020680068009020684068009000BF00BFB0
:10227000E06B40F00800E06320680068C0F34015A0
:102280002068C06800F020061DB116B1204601F09C
:1022900021FB20680068C0F3C0152068C06800F00A
:1022A00080061DB116B1204601F0BAFC2068006816
:1022B000C0F380152068C06800F040061DB116B15B
:1022C000204601F0E3FAE06B28B1012084F83900E0
:1022D0002046FFF770FFF8BD10B504460CB9012089
:1022E00010BDA06920B33E492068884207D03D490F
:1022F0002068884203D03C492068884200D103E02E
:10230000FC213A4802F032FDA06958B1A069B0F54D
:10231000807F07D0A069B0F5007F03D0A069B0F539
:10232000407F00D116E0FD21304802F01FFD11E092
:102330002B492068884207D02A492068884203D068
:1023400029492068884200D104E040F20111274861
:1023500002F00CFDA06818B1A068B0F5805F00D154
:1023600004E040F20311214802F000FDE06918B1D9
:10237000E069B0F5004F00D104E04FF482711B48D2
:1023800002F0F4FC94F8390028B9002084F83800F1
:10239000204600F02DF8022084F839002068C0683B
:1023A00020F400502168C860204601F0F1FA20684E
:1023B000006920F49040216808612068406920F09D
:1023C0002A00216848612068C06840F400502168F4
:1023D000C8600020E063012084F8390000207FE716
:1023E000001001400044004000140140CC56000899
:1023F00010B586B004461D492068884233D100BF1D
:102400001B48006840F00100194908600846006850
:1024100000F00100009000BF00BF00BF1448103062
:10242000006840F400301249103108600846006826
:1024300000F40030009000BF00BF0C20019002208B
:10244000029000200390032004900720059001A92A
:102450000848FEF767FB002211462620FEF7B6FD6E
:102460002620FEF79BFD06B010BD00000044004092
:10247000303802400000024030B50346002493F893
:102480003940012C01D0122C37D101B10AB90120F9
:1024900030BD00BF93F83800012801D10220F7E7D2
:1024A000012083F8380000BF99629A85DA85002000
:1024B000D86393F83900122803D1322083F8390009
:1024C00002E0222083F839001868C06840F4807068
:1024D0001D68E8601868406940F001001D68686187
:1024E00000BF002083F8380000BF1868C06840F0C3
:1024F00020001D68E8600020CAE70220C8E7704796
:102500002DE9F04704460D46164699464FF000085F
:1025100094F83980B8F1010F02D0B8F1220F65D1DB
:1025200005B116B90120BDE8F08700BF94F8380066
:10253000012801D10220F6E7012084F8380000BF0D
:102540000020E06394F83900222803D1322084F877
:10255000390002E0122084F83900A684E68428E0DD
:10256000E08C401EE084A068B0F5805F14D14B463B
:1025700000228021204601F08BFB08B10320D2E726
:102580002F463888C0F3080021684860206908B9E0
:10259000AD1C0EE06D1C0CE04B4600228021204655
:1025A00001F076FB08B10320BDE715F8010B2168A7
:1025B0004860E08C0028D3DC4B46002240212046B6
:1025C00001F066FB08B10320ADE794F8390032282A
:1025D00003D1222084F8390002E0012084F8390078
:1025E00000BF002084F8380000BF9CE702209AE773
:1025F0007047000070B505460C4600261821284695
:1026000000F0F2F93549096808800F2C62D2DFE842
:1026100004F0080E141A20262C32383E444A505634
:102620005C002E480068007800F0010652E02B485C
:1026300000680078C0F340064CE028480068007845
:10264000C0F3800646E0254800680078C0F3C00665
:1026500040E0224800680078C0F300163AE01F48C6
:1026600000680078C0F3411634E01C480068007828
:10267000C0F3C0162EE0194800680088C0F3002699
:1026800028E0164800680088C0F3402622E013487E
:1026900000680088C0F380261CE0104800680088AD
:1026A000C0F3C02616E00D4800680088C0F300366D
:1026B00010E00A4800680088C0F340360AE0074886
:1026C00000680088C0F3803604E004480068008891
:1026D000C60B00BF00BF304670BD0000A800002040
:1026E00070B504460D46383555ED090AB0EE600A5E
:1026F00000F0A6FFA08355ED080AB0EE600A00F0D6
:10270000B7FFE08355ED070AB0EE600A01F00AF862
:10271000208455ED060AB0EE600A01F01BF86084D3
:1027200055ED050AB0EE600A00F0BAFFA08415ED81
:10273000040ADFED7E0A20EE200A55ED0E0A80EE37
:10274000201ABCEEC10A10EE100AC1B226200155B3
:1027500015ED030ADFED750A20EE200A55ED0E0A8D
:1027600080EE201ABCEEC10A10EE100AC1B227207A
:10277000015515ED020ADFED6D0A20EE200A55ED38
:102780000E0A80EE201ABCEEC10A10EE100AC1B289
:102790002820015515ED010ADFED640A20EE200A1C
:1027A00055ED0E0A80EE201ABCEEC10A10EE100A9A
:1027B000C1B229200155D5ED000AB0EE600A00F043
:1027C00099FF6085D5ED010AB0EE600A02F0ACFB1E
:1027D00084F82C00D5ED020AB0EE600A02F074FB1A
:1027E00084F82D00D5ED030AB0EE600A02F084FBF8
:1027F00084F82E00297C84F82F10D5ED050AB0EE60
:10280000600A02F0B5FA84F83100D5ED060AB0EEA0
:10281000600A02F0DFFA84F83200297F84F833106E
:10282000697F84F83410E98B383DE186A28B2078EB
:10283000A1680B6804219847E28B2078A1680B6897
:1028400005219847228C2078A1680B6806219847BB
:10285000628C2078A1680B6807219847A28C2078A9
:10286000A1680B680821984726210A5D2078A16895
:102870000B680921984727210A5D2078A1680B6819
:102880000A21984728210A5D2078A1680B680B214E
:10289000984729210A5D2078A1680B680C21984788
:1028A000628D2078A1680B680D21984794F82C2040
:1028B0002078A1680B680E21984794F82D20207885
:1028C000A1680B680F21984794F82E202078A16802
:1028D0000B681021984794F82F202078A1680B6886
:1028E0001121984794F831202078A1680B681321B2
:1028F000984794F832202078A1680B6814219847F3
:1029000094F833202078A1680B681521984794F833
:1029100034202078A1680B6816219847E28E207831
:10292000A1680B681721984770BD00000000804324
:10293000F8B505460E46002016490870002425E02B
:10294000154A118950680022FEF7AAFA0A2006EB00
:10295000440205EB4401022300901048FFF758FAA7
:102960000D4A118950680122FEF79AFA00200C499D
:10297000087005E000BF0A480078401C084908704C
:10298000074800781428F5DB601CC4B2042CD7DBA0
:10299000F8BD0000A4000020B003002000040020C7
:1029A000AC00002070B503460C460020012108E071
:1029B00004EB4105ED5C561AF600B54028434D1C6A
:1029C000E9B20329F4DD70BD70B5DDE9044501EB22
:1029D0000016327001EB0016736001EB0016B46054
:1029E00001EB0016F56070BD2DE9FC4105460C4673
:1029F00000200090234602220D490190284600F055
:102A00004DF90C490A4800F067F90B490948FFF7EE
:102A10008FFF04EB8400094901EB8000867B32467E
:102A200005492846FFF7BEFF07463846BDE8FC814A
:102A300090030020940000209C000020A84F000874
:102A40000146192906DA01EB8100034A02EB8000F6
:102A5000401C704701A0FCE7A84F000800000000E0
:102A60007CB5044600200090034612220A490190DA
:102A7000204600F013F90949074800F02DF90849EC
:102A80000648FFF755FF022205492046FFF78AFF57
:102A900085B228467CBD00009003002094000020F1
:102AA0009C0000201CB504460020009003460A222A
:102AB00006490190204600F0F1F80549034800F06E
:102AC0000BF904490248FFF733FF1CBD90030020B7
:102AD000940000209C0000201CB5044600200090BB
:102AE00003460B2206490190204600F0D7F805491D
:102AF000034800F0F1F804490248FFF719FF1CBD34
:102B000090030020940000209C0000207CB5054626
:102B10000C46B4F5800F10D2002000902346062208
:102B200006490190284600F0B9F80549034800F02D
:102B3000D3F804490248FFF7FBFE7CBD9003002058
:102B4000940000209C0000207CB506460D461446EB
:102B5000B4F5800F10D200202B4607220749CDE99B
:102B60000040304600F09AF80549044800F0B4F8F7
:102B700004490348FFF7DCFE7CBD00009003002001
:102B8000940000209C0000202DE9FC4107460C46E3
:102B900015461E462346082207493846CDE9005609
:102BA00000F07CF80549044800F096F80449034811
:102BB000FFF7BEFEBDE8FC819003002094000020DA
:102BC0009C0000201CB50446002000900346112202
:102BD00006490190204600F061F80549034800F0DD
:102BE0007BF804490248FFF7A3FE1CBD90030020B8
:102BF000940000209C0000201CB50446002000909A
:102C000003460F2206490190204600F047F8054987
:102C1000034800F061F804490248FFF789FE1CBD33
:102C200090030020940000209C000020014619B170
:102C3000002903DD022901DA08467047FF20FCE77E
:102C40007CB506460C46154600202346052207495A
:102C5000CDE90050304600F021F80549034800F066
:102C60003BF804490248FFF763FE7CBD9003002057
:102C7000940000209C00002010B50549054800F094
:102C80002BF805490248FFF753FE034810BD00002A
:102C900094000020900300209C0000202DE9FC43BC
:102CA00005460C4616461F46DDE9098909480078A5
:102CB00028B9012007490870204600F07BFA3B46FE
:102CC000324621462846CDE90089FFF77DFEBDE862
:102CD000FC830000A4000020F0B503460A4600254E
:102CE00000210EE0002008E04FF0000C2E466F1C83
:102CF000FDB202F806C0461CF0B20228F4DB4E1CFE
:102D0000F1B20429EEDB00201DE103EB001636785A
:102D1000C6EBC6068E4F07EB4606367B165403EB12
:102D200000163678132E0BD2DFE806F00A0B313E80
:102D30005B688596B3DDFEFDFCFBFAF9F8F7F6005B
:102D4000FEE0165C03EB00177F6807EB8707DFF8F0
:102D500004C21CF827703E43165403EB0016766835
:102D600006EB8606674607EB8606B47B01210AE080
:102D700003EB0016B668671AFF00FE4000EB410740
:102D8000D6554E1CF1B2661CB142F1DBD8E0165CA0
:102D900003EB00177F6807EB8707DFF8B8C11CF863
:102DA00027703E431654CBE0165C03EB00177F6898
:102DB00007EBC707DFF8A0C167443F7A3E431654CC
:102DC00001210BE003EB0016B668C1F10307FF0019
:102DD000FE4000EB4107D6554E1CF1B20429F1DB51
:102DE000AEE0165C03EB00177F6807EBC707DFF860
:102DF00068C167443F7A3E431654A1E0165C03EB7A
:102E000000177F6807EBC707DFF84CC167443F7ABC
:102E10003E43165401210BE003EB0016B668C1F1E6
:102E20000307FF00FE4000EB4107D6554E1CF1B2F0
:102E30000429F1DB84E001210BE003EB0016766846
:102E4000C1F10307FF00FE4000EB4107D6554E1CC1
:102E5000F1B20429F1DB73E0165C03EB00177F6825
:102E600007EBC707DFF8F0C067443F7A3E431654CC
:102E700001210BE003EB0016B668C1F10307FF0068
:102E8000FE4000EB4107D6554E1CF1B20429F1DBA0
:102E900056E0165C03EB00177F6807EB8707DFF847
:102EA000BCC067443F7946EAC7061654165C03EB7C
:102EB0000017BF6807EBC707DFF89CC067443F7A7D
:102EC0003E43165401210BE003EB0016F668C1F1F6
:102ED0000307FF00FE4000EB4107D6554E1CF1B240
:102EE0000429F1DB2CE0165C03EB00177F6807EB8D
:102EF0008707DFF868C067443F7946EAC70616547B
:102F0000165C03EB0017BF6807EBC707DFF848C084
:102F100067443F7A3E4308E011E00FE00DE00BE02C
:102F200009E007E005E003E001E0165408E007E0EF
:102F300006E005E004E003E002E001E000E000BF9D
:102F400000BF461CF0B20228FFF6DFAEF0BD000065
:102F50009C510008A84F0008A6520008B85200086B
:102F60003CB505460C46002000902346022203494A
:102F700001902846FFF792FE3CBD00009003002020
:102F80001CB504460020009003461222024901901D
:102F90002046FFF783FE1CBD900300201CB50446AD
:102FA0000020009003460A22024901902046FFF7C4
:102FB00075FE1CBD900300201CB504460020009047
:102FC00003460B22024901902046FFF767FE1CBD15
:102FD000900300203CB505460C4600200090234697
:102FE0000622034901902846FFF758FE3CBD000029
:102FF000900300207CB506460C461546002023466B
:1030000007220349CDE900503046FFF747FE7CBD5B
:1030100090030020FCB507460C4615461E46234685
:10302000082203493846CDE90056FFF737FEFCBDBC
:10303000900300201CB50446002000900346112296
:10304000024901902046FFF729FE1CBD9003002095
:103050001CB504460020009003460F22024901904F
:103060002046FFF71BFE1CBD900300207CB50646E2
:103070000C4615460020234605220349CDE90050A1
:103080003046FFF70BFE7CBD900300207CB5064662
:103090000C4615460020234609220349CDE900507D
:1030A0003046FFF7FBFD7CBD900300201CB50446B5
:1030B0000020009003460D22024901902046FFF7B0
:1030C000EDFD1CBD900300201CB5044600200090BF
:1030D00003460C22024901902046FFF7DFFD1CBD8C
:1030E000900300207CB506460C461546002023467A
:1030F00003220349CDE900503046FFF7CFFD7CBDE8
:10310000900300207CB506460C4615460020234659
:1031100001220349CDE900503046FFF7BFFD7CBDD9
:10312000900300201CB504460020009003461022A6
:10313000024901902046FFF7B1FD1CBD900300201D
:103140001CB504460020009003460E22024901905F
:103150002046FFF7A3FD1CBD900300203CB50546AB
:103160000C46002000902346042203490190284683
:10317000FFF794FD3CBD0000900300207CB506469F
:103180000C4615460020234609220749CDE9005088
:103190003046FFF783FD05490348FFF79DFD0449CD
:1031A0000248FFF7C5FB7CBD90030020940000207F
:1031B0009C000020014600200EE0002201EB0013DD
:1031C0001A7001EB00135A6001EB00139A6001EBD7
:1031D0000013DA60421CD0B20228EEDB7047000018
:1031E0001CB504460020009003460D2206490190BC
:1031F0002046FFF753FD05490348FFF76DFD0449DD
:103200000248FFF795FB1CBD9003002094000020AE
:103210009C0000201CB504460020009003460C22B0
:10322000064901902046FFF739FD05490348FFF79D
:1032300053FD04490248FFF77BFB1CBD90030020AF
:10324000940000209C0000207CB506460C461546E4
:103250000020234603220749CDE900503046FFF7FE
:103260001DFD05490348FFF737FD04490248FFF7F4
:103270005FFB7CBD90030020940000209C00002098
:103280007CB506460C461546002023460122074918
:10329000CDE900503046FFF701FD05490348FFF72F
:1032A0001BFD04490248FFF743FB7CBD900300204F
:1032B000940000209C0000201CB5044600200090D3
:1032C00003461022064901902046FFF7E7FC054916
:1032D0000348FFF701FD04490248FFF729FB1CBD25
:1032E00090030020940000209C0000201CB50446A0
:1032F0000020009003460E22064901902046FFF769
:10330000CDFC05490348FFF7E7FC04490248FFF7F5
:103310000FFB1CBD90030020940000209C000020A7
:103320007CB505460C460020009023460422074940
:1033300001902846FFF7B2FC05490448FFF7CCFC92
:1033400004490348FFF7F4FA7CBD00009003002015
:10335000940000209C00002010B501210020FDF702
:1033600099FA0020FDF7C2F910BD000070B52148A0
:10337000214908604FF48270486000211E48816036
:10338000C160022101610121416149028161002185
:10339000016241628162FEF7CFF806461748B6FB2C
:1033A000F0F085B2022D01DA00241DE0042D01DACF
:1033B000082419E0082D01DA102415E0102D01DA97
:1033C000182411E0202D01DA20240DE0402D01DA2F
:1033D000282409E0802D01DA302405E0FF2D01DCEE
:1033E000382401E000BFFEE70348C461FEF7B0FBEC
:1033F00070BD00000030014000040020404B4C0034
:1034000010B5FFF7B3FF10BD10B5094809490860B2
:103410004FF4E1304860002106488160C1600161DD
:103420000C21416100218161C161FEF755FF10BD92
:1034300000440040B00400202DE9F04113A11B48D6
:1034400001F0C6FB01F02EFAFDF738FB0746002419
:1034500012E02046FDF7A0FA8046FCF763FF054620
:10346000600000EB400101EBC00007EBC0063046F6
:1034700069688847601CC4B2012CEADB0CA10B48C8
:1034800001F0A6FB01F00EFABDE8F081496E697407
:1034900069616C2076616C75657320666F7220724D
:1034A00065676973746572733A0A0D00B004002091
:1034B000437573746F6D2076616C75657320666FEC
:1034C00072207265676973746572733A0A0D000041
:1034D00010B5FDF711FD00F05BF9FFF73DFFFFF7B9
:1034E0008FFFFFF791FF40F2EE21032001F016FC61
:1034F00010BD000002480068C0F3022070470000C1
:103500000CED00E010B5002807DA0A07140E054A92
:1035100000F00F031B1FD45403E00A07130E024AE6
:10352000135410BD18ED00E000E400E02DE9F04177
:1035300004460E4617461D464FF00008FDF7CEFC28
:103540008046002F3ED132E0681C78B32DB1FDF7E4
:10355000C5FCA0EB0800A84229D92068406820F0EB
:10356000E000216848602068006820F04000216881
:103570000860A06AB0F5005F0DD100BF2068006848
:1035800020F40050216808602068006840F4005072
:103590002168086000BF012084F8510000BF0020AE
:1035A00084F8500000BF0320BDE8F081FFE72068E9
:1035B00080683040B04201D1012000E000200028A6
:1035C000C2D03BE030E0681C70B32DB1FDF786FC43
:1035D000A0EB0800A84227D92068406820F0E0004E
:1035E000216848602068006820F040002168086079
:1035F000A06AB0F5005F0DD100BF2068006820F41C
:103600000050216808602068006840F4005021687C
:10361000086000BF012084F8510000BF002084F83A
:10362000500000BF0320BFE7206880683040B042F0
:1036300001D1012000E000200028C4D10020B3E720
:10364000DFED090AB4EEE00AF1EE10FA09D8DFED79
:10365000070A80EE201AFCEEC10A10EE900A80B232
:1036600070470020FCE7000071C66847FED468413F
:10367000DFED090AB4EEE00AF1EE10FA09D8DFED49
:10368000070A80EE201AFCEEC10A10EE900A80B202
:1036900070470020FCE7000071C66847FED468410F
:1036A00010B52DED048BB0EE408A18EE100AFCF731
:1036B0008DFD41EC190B9FED0C0B53EC102BFCF71F
:1036C00099FD0FD8DFED0A0A88EE200AF6EE000A0F
:1036D00030EE600ABCEEC00A10EE100A80B2BDECFB
:1036E000048B10BD0020FAE700000000307CCE40C3
:1036F00000007441DFED090AB4EEE00AF1EE10FAC1
:1037000009D8DFED070A80EE201AFCEEC10A10EEA0
:10371000900A80B270470020FCE700002320744428
:10372000F423743DDFED090AB4EEE00AF1EE10FA7D
:1037300009D8DFED070A80EE201AFCEEC10A10EE70
:10374000900A80B270470020FCE7000002E7734651
:103750000B247441DFED090AB4EEE00AF1EE10FA31
:1037600009D8DFED070A80EE201AFCEEC10A10EE40
:10377000900A80B270470020FCE70000BF14744438
:103780000124743E10B5FDF7AFFBFEF710FD10BD30
:1037900000B593B000BF2248006840F08050204937
:1037A00008600846006800F08050019000BF00BF2C
:1037B00000BF1C48006820F4404040F40040194914
:1037C00008600846006800F44040019000BF00BF58
:1037D0000220079001200A9010200B9002200D90EB
:1037E00000210E9110210F914FF4A8711091042126
:1037F00011910721129107A8FDF70EFF05200290F5
:1038000002200390002004904FF480500590002087
:103810000690022102A8FDF74FFC13B000BD000086
:1038200040380240007000401448006840F47000C6
:10383000124908601248006840F001001049086011
:1038400000200F49083108600D4800680D49084004
:103850000B4908600C48091D0860081F006820F427
:103860008020091F0860002005490C3108604FF0D6
:1038700000600249803908607047000088ED00E070
:1038800000380240FFFFF6FE1030002410B5044659
:103890002068C06820F040002168C86094F83900B2
:1038A000322803D1222084F839000EE02068C06855
:1038B00020F480702168C8602068406920F0010011
:1038C00021684861012084F839002046FEF790FE07
:1038D000002010BD70B50446002694F83960222EF1
:1038E00001D0322E52D1A068B0F5805F13D1A56A05
:1038F000206940B920684068C0F308002880A06AA9
:10390000801CA06219E020684068C0B22880A06ACC
:10391000401CA06211E0206938B920684068C1B23B
:10392000A26A501CA062117007E02068406800F095
:103930007F01A26A501CA0621170E08D401E80B20F
:10394000E08508BB2068C06820F020002168C860BE
:1039500094F83900322803D1122084F839000EE09F
:103960002068C06820F480702168C86020684069C1
:1039700020F0010021684861012084F839002046C8
:10398000FEF7BDFD002070BD0020FCE70220FAE735
:103990002DE9F041044600259D496068884200D227
:1039A00004E040F236719B4801F0E0F9E06818B19C
:1039B000E068B0F5005F00D104E040F2377195484F
:1039C00001F0D4F9206938B12069B0F5806F03D0D7
:1039D0002069B0F5C06F00D104E04FF4E7618D4875
:1039E00001F0C4F94FF6F3716069084010B96069DD
:1039F00000B104E040F23971864801F0B7F920685F
:103A0000056925F44055E068054320680561206894
:103A1000C56849F20C6085432169A0680843616963
:103A20000843E169084305432068C560206845698B
:103A300025F44075A069054320684561E069B0F54B
:103A4000004F72D174492068884203D073492068BE
:103A5000884234D1FDF770FD00EBC00101EB00108E
:103A600061684900B0FBF1F06421B0FBF1F6FDF7AD
:103A700063FD00EBC00101EB001061684900B0FB81
:103A8000F1F7FDF759FD00EBC00101EB0010616893
:103A90004900B0FBF1F06421B0FBF1F000EBC00194
:103AA00001EB0010A7EB8000322101EB0010642134
:103AB000B0FBF1F066F31F1021688860A6E0FDF707
:103AC00025FD00EBC00101EB001061684900B0FB6F
:103AD000F1F06421B0FBF1F6FDF718FD00EBC00139
:103AE00001EB001061684900B0FBF1F7FDF70EFD36
:103AF00000EBC00101EB001061684900B0FBF1F080
:103B00006421B0FBF1F000EBC00101EB0010A7EB6A
:103B10008000322101EB00106421B0FBF1F066F36C
:103B20001F102168886071E0FFE73B4920688842E8
:103B300003D03A492068884234D1FDF7FDFC00EB00
:103B4000C00101EB001061688900B0FBF1F0642155
:103B5000B0FBF1F6FDF7F0FC00EBC00101EB00104B
:103B600061688900B0FBF1F7FDF7E6FC00EBC001EE
:103B700001EB001061688900B0FBF1F06421B0FB3B
:103B8000F1F000EBC00101EB0010A7EB8000322147
:103B900001EB00106421B0FBF1F066F31F10216807
:103BA000886033E0FDF7B2FC00EBC00101EB0010D0
:103BB00061688900B0FBF1F06421B0FBF1F6FDF71C
:103BC000A5FC00EBC00101EB001061688900B0FBAF
:103BD000F1F7FDF79BFC00EBC00101EB0010616801
:103BE0008900B0FBF1F06421B0FBF1F000EBC00103
:103BF00001EB0010A7EB8000322101EB00106421E3
:103C0000B0FBF1F066F31F1021688860BDE8F08119
:103C1000A137A000CC56000800100140001401405C
:103C200010B50146002391F83930122B01D0322B08
:103C30002CD18868B0F5805F0FD10A6A1088C0F374
:103C400008000C686060086918B9086A801C08627E
:103C500009E0086A401C086205E00C6A601C086202
:103C600020780C686060C88C401E80B2C88458B947
:103C70000868C06820F080000C68E0600868C068D0
:103C800040F040000C68E060002010BD0220FCE71E
:103C90002DE9F04104460E4617461D464FF0000838
:103CA000FDF71CF980469FBB2BE0681C48B32DB183
:103CB000FDF714F9A0EB0800A84222D92068C068DB
:103CC00020F080002168C8602068C06820F02000D3
:103CD0002168C8602068C06820F480702168C860CE
:103CE0002068406920F0010021684861012084F8C3
:103CF000390000BF002084F8380000BF0320BDE871
:103D0000F081206800683040B04202D1012001E01B
:103D100003E000200028C8D035E02AE0681C40B34A
:103D20002DB1FDF7DBF8A0EB0800A84221D92068EF
:103D3000C06820F080002168C8602068C06820F05A
:103D400020002168C8602068C06820F48070216865
:103D5000C8602068406920F00100216848610120A6
:103D600084F8390000BF002084F8380000BF032029
:103D7000C5E7206800683040B04201D1012000E072
:103D800000200028CAD10020B9E7000010B5034880
:103D9000FEF712FA014800F047FD10BDB004002004
:103DA00010B50A4890F8390001280DD1084800786C
:103DB00028B1084B084A0949054800F037FC402261
:103DC00003490248FEF758FB10BD0000B004002074
:103DD0000A0500209C000020940000204A050020D5
:103DE0002DE9F04F89B080460E460020079007A8C5
:103DF00006904FF0000A002511E00020089009E02D
:103E000000225046411C01F0FF0A32540898401C21
:103E1000C0B2089008980228F2DB681CC5B2042DD5
:103E2000EBDB002106980170002700BF4FF0000A6D
:103E30000EE00AF1010000F0FF0ABAF1020F07D10B
:103E4000F2A1FE4800F0C4FE002009B0BDE8F08FEA
:103E50000AEB8A0202EBCA02F94B1A4402F1090189
:103E600007EB470208EB0210FCF784FD0028E0D0C6
:103E70005046FEF7DBFE04460AEB8A0101EBCA015D
:103E8000EF4A114401F109000699FCF773FD00287F
:103E90006FD10AEB8A0000EBCA00E94908440930F7
:103EA0000690002005900CE00598401CC0B20590DB
:103EB0000598132805D1E349E04800F089FE002069
:103EC000C3E7059AC2EBC202DF4B03EB420107EBEB
:103ED000470208EB0212D01CFCF74CFD0028E3D08F
:103EE0000598C0EBC000D84901EB4000407B04902E
:103EF0004FF0000A14E007EB470008EB00100F300A
:103F00000AEB4A0101EBCA01405C28B9CF49CB4812
:103F100000F05EFE002098E70AF1010000F0FF0AC1
:103F200004988245E7DBBAF1030F10DA07EB47008C
:103F300008EB00100F300AEB4A0101EBCA01405CAC
:103F400028B1C249BD4800F043FE00207DE7059836
:103F500013280DD2DFE800F00A0E5B96D6F3F2F1DB
:103F6000F0EFEEEDECEBEAE9E8E7E6000020305593
:103F7000EDE2EDE24FF0000B0CE00BF1010000F080
:103F8000FF0BBBF1190F05D1B1A1AC4800F020FE29
:103F900000205AE70BEB8B02BD4B03EB8202511C56
:103FA00007EB470208EB021202F10F00FCF7E2FCFC
:103FB0000028E2D00BEB8B00B54911F820003055FA
:103FC0000BEB8B0001EB8000807B039007EB47013C
:103FD00008EB011101F11A0002A900F0BDFF28B998
:103FE000ACA1964800F0F4FD00202EE7012509E081
:103FF0000398401BC1000298C84004EB450170546F
:10400000681CC5B20398401C8542F1DB9FE24FF06B
:10401000000B0CE00BF1010000F0FF0BBBF1190FDE
:1040200005D18BA1854800F0D3FD00200DE70BEBF7
:104030008B02974B03EB8202511C07EB470208EB04
:10404000021202F10F00FCF795FC0028E2D00BEB06
:104050008B008F4911F8200040F0200030550BEB09
:104060008B0001EB8000807B0390012505E00020A0
:1040700004EB45017054681CC5B20398401C85428E
:10408000F5DB64E24FF000090CE009F1010000F0FB
:10409000FF09B9F1020F05D18CA1684800F098FD25
:1040A0000020D2E609EBC902954BD11807EB470275
:1040B00008EB021202F10F00FCF75CFC0028E4D0D0
:1040C00049F05000305507EB470108EB011101F1B1
:1040D0001A0002A900F040FF28B96EA1574800F06D
:1040E00077FD0020B1E6012509E0C5F10300C1001C
:1040F0000298C84004EB45017054681CC5B2042DF9
:10410000F3DB24E24FF000091AE009F1010000F0AE
:10411000FF09B9F1020F13D16CA1484800F058FD16
:10412000002092E606E202E2FEE1FAE1F6E1F2E1C7
:10413000EEE1EAE1E6E19DE135E1F2E052E011E095
:1041400009EBC9026E4BD11807EB470208EB0212CC
:1041500002F10F00FCF70EFC0028D6D049F0580001
:104160003055F4E14FF000090CE009F1010000F0D6
:10417000FF09B9F1020F05D154A1304800F028FD24
:10418000002062E609EBC9025D4BD11807EB47023C
:1041900008EB021202F10F00FCF7ECFB0028E4D060
:1041A00049F04000305507EB470108EB011101F1E0
:1041B0001A0002A900F0D0FE28B936A11F4800F06D
:1041C00007FD002041E6012509E0C5F10300C1001B
:1041D0000298C84004EB45017054681CC5B2042D18
:1041E000F3DBB4E16020305507EB470108EB011128
:1041F00001F10F0002A900F0AFFE28B925A10F4878
:1042000000F0E6FC002020E67CE000004974206914
:1042100073206E6F7420706F737369626C652074A5
:104220006F206964656E7469667920746865204CD6
:10423000363437302E0A0D0A0D000000B00400207D
:10424000F0040020185700089C5100085C57000833
:104250004974206973206E6F7420706F7373696284
:104260006C6520746F207265636F676E697A652074
:10427000616E79204C36343730207265676973740B
:104280006572206E616D652E0A0D0A0D000000003A
:10429000A84F00084974206973206E6F7420706FF6
:1042A000737369626C6520746F207265636F676EEB
:1042B000697A6520616E79206E756D65726963201B
:1042C00076616C75652E0A0D0A0D0000497420692F
:1042D00073206E6F7420706F737369626C652074E5
:1042E0006F207265636F676E697A6520616E7920F1
:1042F000646972656374696F6E2E0A0D0A0D0000A1
:10430000A6520008012509E0C5F10300C10002988A
:10431000C84004EB45017054681CC5B2042DF3DBA2
:1043200015E14FF000090DE009F1010000F0FF096F
:10433000B9F1020F06D1AFF26C019E4800F048FCC3
:10434000002082E509EBC9029B4BD11807EB47021D
:1043500008EB021202F10F00FCF70CFB0028E3D07F
:1043600049F06800305507EB470108EB011101F1F6
:104370001A0002A900F0F0FD30B9AFF2E8018D4853
:1043800000F026FC002060E5012509E0C5F10300EE
:10439000C1000298C84004EB45017054681CC5B2C6
:1043A000042DF3DBD3E0002001900CE00198401CC9
:1043B000C0B201900198022805D180A17D4800F08B
:1043C00007FC002041E5019A02EB8202874BD118DD
:1043D00007EB470208EB021202F10F00FCF7CAFAE2
:1043E0000028E3D08221019841EAC00030554FF007
:1043F00000090DE009F1010000F0FF09B9F1020F19
:1044000006D1AFF238116B4800F0E2FB00201CE54A
:1044100009EBC902684BD11807EB470208EB0212FF
:1044200002F11A00FCF7A6FA0028E3D0305D40EA5A
:104430000900305507EB470108EB011101F1250098
:1044400002A900F089FD30B9AFF2B811594800F067
:10445000BFFB0020F9E4012509E0C5F10300C1001C
:104460000298C84004EB45017054681CC5B2042D85
:10447000F3DB6CE0002001900CE00198401CC0B21E
:1044800001900198022805D14CA14A4800F0A0FBF8
:104490000020DAE4019A02EB8202544BD11807EBB8
:1044A000470208EB021202F10F00FCF763FA002842
:1044B000E3D09221019841EAC00030554FF0000945
:1044C0000DE009F1010000F0FF09B9F1020F06D17A
:1044D000AFF20821374800F07BFB0020B5E409EB80
:1044E000C902354BD11807EB470208EB021202F163
:1044F0001A00FCF73FFA0028E3D0305D40EA0900DB
:10450000305524E07020305521E0782030551EE0F1
:10451000D82030551BE0C020305518E0B020305571
:1045200015E0B820305512E0A02030550FE0A8204B
:1045300030550CE0D0203055012505E0002004EB7B
:1045400045017054681CC5B2032DF7DB00BF05E0C0
:1045500027A1184800F03CFB002076E4781CC7B285
:10456000022F24DA07EB470008EB00100078002840
:104570007FF45CAC07EB470008EB0010C078002824
:10458000F6D107EB470008EB0010C07B0028EFD105
:1045900007EB470008EB0010807E0028E8D107EB0E
:1045A000470008EB001090F825000028E0D101201A
:1045B0004BE40000B0040020A652000849742069B2
:1045C00073206E6F7420706F737369626C652074F2
:1045D0006F207265636F676E697A6520616E7920FE
:1045E000616374696F6E2E0A0D0A0D00B8520008DF
:1045F000426F746820656E746572656420636F6DC8
:104600006D616E64732061726520616464726573AC
:1046100073696E67207468652073616D65204C3620
:104620003437302E0A0D0A0D000000002DE9F84F36
:1046300082468846154699464146504600F0CAF9DA
:1046400000287DD029464046FFF7CAFB0028F8D055
:1046500050A15D4800F0BCFA49462846FEF768F9CB
:10466000002487E00020594941F82400285D00F02B
:10467000E000202853D1002601E0701CC6B2285D5E
:1046800000F01F0006EB8601514A12F82110884203
:10469000F3D106EB8600114601EB8000877B012FEA
:1046A00002D0022F06D102E04FF0010B05E04FF0DF
:1046B000020B02E04FF0030B00BF00BF3A46494631
:1046C0002046FEF76FF9414941F8240004EB8400CD
:1046D00000EBC4003F4A81183B4800F079FA3EA144
:1046E000394800F075FA06EB8600394A02EB800083
:1046F000411C354800F06CFA38A1334800F068FAE4
:10470000324951F82400594600F0A4FB01460090BC
:104710002D4800F05DFA2BA12B4800F059FA285DD6
:10472000D02825D1022249462046FEF73BF92749E9
:1047300041F8240004EB840000EBC400254A00E0AB
:1047400020E08118204800F043FA28A11E4800F01C
:104750003FFA1E4951F82400022100F07BFB01467C
:104760000090194800F034FA16A1174800F030FA0A
:10477000601CC4B2022CFFF675AF12A1124800F003
:1047800027FA03E01EA1104800F022FA0F48BDE806
:10479000F88F0000506572666F726D207468652036
:1047A000656E7465726564204C3634373020417014
:1047B000706C69636174696F6E20436F6D6D616EBB
:1047C000642E2E2E0A0D0000B00400208403002069
:1047D000A84F0008F0040020200000002076616C43
:1047E0007565206973203078000000002053544123
:1047F0005455532076616C756520697320307800BC
:10480000506C656173652C20656E74657220612043
:104810006E657720636F6D6D616E6420737472696D
:104820006E67210A0D0A0D0070B5044620684068C5
:10483000C5B2E08D012801D00D2D30D1E08D401C96
:10484000E085A06A401EA0620020A16A087014A141
:10485000204600F0BDF900BF2068006800F020008D
:104860000028F9D12068C06820F020002168C860C5
:1048700094F83900322803D1122084F839000EE070
:104880002068C06820F480702168C8602068406992
:1048900020F0010021684861012084F8390070BDD2
:1048A0000A0D000070B50020FCF776F8044611E010
:1048B0000020FEF7BBF9054605E02946204600F03A
:1048C0000FF8681CC5B20120FEF7B0F9A842F4DA6F
:1048D000601CC4B20020FCF75FF8A042E8DA70BDAB
:1048E0002DE9F04106460D463046FCF721F8002838
:1048F00049D026A1264800F06BF926A1244800F0F3
:1049000067F90021284600F0A5FA80464146204874
:1049100000F05EF928A11E4800F05AF90021304647
:1049200000F098FA80464146194800F051F926A156
:10493000174800F04DF900241FE021462846FEF7F5
:1049400053F807462046FEF77BF88046414610485C
:1049500000F03EF91EA10E4800F03AF90321384656
:1049600000F078FA80464146094800F031F907A185
:10497000074800F02DF9601CC4B2192CDDDB03A13F
:10498000034800F025F9BDE8F08100000A0D0000A1
:10499000B004002056616C756573206F66207468E2
:1049A0006520726567697374657273206F66204C49
:1049B000363437305F230000206F66204578704220
:1049C00072645F23000000000A0D0A0D0000000061
:1049D0003A2000002DE9F05F82460D4600241DE0DC
:1049E000002004EB440105EB0111087004EB4401C5
:1049F00005EB0111C87004EB440105EB0111C8730C
:104A0000002104EB440005EB0010817604EB440028
:104A100005EB001080F82510601CC4B2022CDFDB0F
:104A20004FF000091AF8097000264FF0020B00241D
:104A3000A04693E02C2F12D02E2F1FD1B8F1040FD7
:104A400005D008F1010000F0FF08002606E046A1AD
:104A50004E4800F0BDF80020BDE8F09F77E0601CF4
:104A6000C4B2022C03D04FF00008002605E048A194
:104A7000464800F0ADF80020EEE768E05E455FD004
:104A8000B8F1050F57D2DFE808F0031223344500D0
:104A90004FF0020B04EB440005EB0010875500219A
:104AA00004EB440005EB0012701C115444E04FF07D
:104AB0000B0B04EB440005EB0010C01C87550022D3
:104AC00004EB440005EB0010C01C711C425433E0A1
:104AD0004FF00A0B04EB440005EB00100F30875534
:104AE000002204EB440005EB00100F30711C42540F
:104AF00022E04FF0070B04EB440005EB00101A30E6
:104B00008755002204EB440005EB00101A30711C9D
:104B1000425411E04FF0070B04EB440005EB00108A
:104B200025308755002204EB440005EB00102530AA
:104B3000711C425400E000BF00BF701CC6B205E00B
:104B40001BA1124800F044F8002085E700BF00BF19
:104B500009F1010000F0FF091AF80970002F7FF435
:104B600069AF012078E70000546F6F206D756368AE
:104B700020656E746572656420706172616D657424
:104B80006572732E0A0D0A0D00000000B0040020AB
:104B9000546F6F206D756368206164647265737310
:104BA0006564204C363437302E0A0D0A0D000000A3
:104BB000546F6F206D75636820656E7465726564EF
:104BC000206368617261637465722E0A0D0A0D00BC
:104BD00070B506460D46002400BF2046611CCCB2CD
:104BE000285C0028F9D1601EC4B20A232246294657
:104BF0003046FDF785FC70BD10B512A11248FFF7D5
:104C0000E7FF12A11048FFF7E3FF15A10E48FFF7D9
:104C1000DFFF1FA10C48FFF7DBFF29A10A48FFF7C0
:104C2000D7FF2BA10848FFF7D3FF2DA10648FFF7B8
:104C3000CFFF2CA10448FFF7CBFF30A10248FFF7BC
:104C4000C7FF10BD0A0D0000B004002020582D4EF3
:104C500055434C454F2D49484D303241310A0D00E6
:104C6000202D2D2D2D2D2D2D2D2D2D2D2D2D2D2D81
:104C70002D2D2D2D2D2D2D2D2D2D2D2D2D2D2D2D64
:104C80002D2D2D2D2D2D2D2D2D2D2D2D0A0D0000F1
:104C9000204475616C204C36343730204578706183
:104CA0006E73696F6E20426F61726420666F72204E
:104CB00053544D3332204E55434C454F0A0D00009E
:104CC00020537461636B6564206F6E2000000000E8
:104CD0004E55434C454F2D4634303152450000006F
:104CE000200A0D0020582D435542452D53504E3279
:104CF0002076312E302E300A0D0000002053544D06
:104D00006963726F656C656374726F6E6963732C2F
:104D100020323031350A0D0A0D0000002DE9F04136
:104D200004460D466F1000260DE00020FBF722FD23
:104D30003846FBF7C7FE0020FBF70CFD3846FBF7B3
:104D4000C1FE701CC6B2A642EFDBBDE8F08102E0F6
:104D500008C8121F08C1002AFAD170477047002006
:104D600001E001C1121F002AFBD17047704700000B
:104D7000F0EE400ADFED151AF4EEE10AF1EE10FA5A
:104D800022D8DFED131A80EEA10AFCEEC01A11EE54
:104D9000900AC0B201EE900AF8EE611A30EE611A84
:104DA000F6EE001AB4EEE11AF1EE10FA06D2FCEEBD
:104DB000C01A11EE900A401EC0B27047FCEEC01A35
:104DC00011EE900AC0B2F8E70020F6E70080BB457C
:104DD0000080BB43F0EE400ADFED151AF4EEE10A65
:104DE000F1EE10FA22D8DFED131A80EEA10AFCEEE4
:104DF000C01A11EE900AC0B201EE900AF8EE611AE4
:104E000030EE611AF6EE001AB4EEE11AF1EE10FA85
:104E100006D2FCEEC01A11EE900A401EC0B27047D6
:104E2000FCEEC01A11EE900AC0B2F8E70020F6E7D7
:104E300000007A450000FA41FEF74AFBFBF7AAFAA8
:104E4000FFF7DAFEFBF7C0FDFEF7F6FA01E0FEF72A
:104E5000A7FFFCE770B504460D4635B1012D06D01D
:104E6000022D06D0032D08D105E0012205E0022223
:104E700003E0042201E0082200BF00BF00211AE085
:104E80000020104E7054501E401A86000F20B04073
:104E90002040561E761AB600F040C3B20A2B04DA40
:104EA00003F13000074E705403E003F13700054E64
:104EB0007054481CC1B29142E2DB0020014E705494
:104EC000304670BDAA050020DFED090AB4EEE00A05
:104ED000F1EE10FA09D8DFED070A80EE201AFCEE99
:104EE000C10A10EE900AC0B270470020FCE7000033
:104EF000D911833B6E958337DFED090AB4EEE00AE2
:104F0000F1EE10FA09D8DFED070A80EE201AFCEE68
:104F1000C10A10EE900AC0B270470020FCE7000002
:104F2000D911833B6E958337DFED090AB4EEE00AB1
:104F3000F1EE10FA09D8DFED070A80EE201AFCEE38
:104F4000C10A10EE900AC0B270470020FCE70000D2
:104F5000D911833B6E95833770B502460B4600210D
:104F60000BE0505C302805DB505C392802DC481C23
:104F7000C1B202E00020186070BD505C0028F0D182
:104F80000124002500BF481EC0B20146165CA6F1F0
:104F9000300000FB045504EB840044000029F2D1EA
:104FA0001D600120E8E70000014142535F504F536C
:104FB00000000000001603000000000002454C5FE6
:104FC000504F5300000000000009020000000000E4
:104FD000034D41524B00000000000000001603008A
:104FE000000000000453504545440000000000004C
:104FF00000140300000000000541434300000000CE
:1050000000000000000C02008A0000000644454336
:105010000000000000000000000C02008A000000F8
:10502000074D41585F53504545440000000A0200B7
:1050300041000000084D494E5F5350454544000073
:10504000000D0200000000001546535F535044005D
:1050500000000000000A020027000000094B564132
:105060004C5F484F4C44000000080100290000003C
:105070000A4B56414C5F52554E000000000801009B
:10508000290000000B4B56414C5F41434300000098
:1050900000080100290000000C4B56414C5F4445BC
:1050A0004300000000080100290000000D494E5493
:1050B0005F53504545440000000E02000804000004
:1050C0000E53545F534C50000000000000080100D4
:1050D000190000000F464E5F534C505F41434300A0
:1050E000000801002900000010464E5F534C505F3D
:1050F000444543000008010029000000114B5F54A3
:105100004845524D0000000000040100000000006E
:10511000124144435F4F5554000000000005010058
:1051200000000000134F43445F544800000000009B
:105130000004010008000000145354414C4C5F541B
:1051400048000000000701004000000016535445CD
:10515000505F4D4F4445000000080100070000006B
:1051600017414C41524D5F454E00000000080100C0
:10517000FF00000018434F4E464947000000000062
:1051800000100200882E000019535441545553005A
:105190000000000000100200000000004E4F500010
:1051A0000000000000000000000053455450415230
:1051B000414D000000000002474554504152414D0E
:1051C00000000000200152554E00000000000000C9
:1051D0000000500253544550434C4F434B000000D5
:1051E00058014D4F564500000000000000004002ED
:1051F000474F544F00000000000000006001474F7F
:10520000544F5F444952000000006802474F554E1A
:1052100054494C0000000000820352454C45415364
:105220004553570000009202474F484F4D4500003C
:10523000000000007000474F4D41524B000000003D
:10524000000078005245534554504F530000000071
:10525000D800524553455444455649434500C00083
:10526000534F465453544F5000000000B000484183
:10527000524453544F5000000000B800534F46545E
:1052800048495A0000000000A000484152444849E3
:105290005A0000000000A80047455453544154559B
:1052A00053000000D00052455600000000000046A8
:1052B000574400000000000152535400004350596D
:1052C00000010000000001020304010203040607BC
:1052D0000809200000202800000010410000484379
:1052E00000000040CDCC4C40000096430000FA4343
:1052F0000000FA430000C84300000000CDAC164493
:10530000CDCC4C40CDCC4C40CDCC4C40CDCC4C4009
:105310007B147642689ACD393598283A3598283AE0
:105320000000000000005C450000484507FF882E93
:10533000000010410000484300000040CDCC4C402C
:10534000000096430000FA430000FA430000C843FF
:1053500000000000CDAC1644CDCC4C40CDCC4C4030
:10536000CDCC4C40CDCC4C407B147642689ACD39A4
:105370003598283A3598283A0000000000005C452E
:105380000000484507FF882E0000104100004843F8
:1053900000000040CDCC4C400000164300007A4392
:1053A00000007A430000484300000000CDAC1644E2
:1053B000CDCC4C40CDCC4C40CDCC4C40CDCC4C4059
:1053C0007B147642689ACD393598283A3598283A30
:1053D0000000000000005C450000484507FF882EE3
:1053E000000010410000484300000040CDCC4C407C
:1053F0000000164300007A4300007A43000048434F
:1054000000000000CDAC1644CDCC4C40CDCC4C407F
:10541000CDCC4C40CDCC4C407B147642689ACD39F3
:105420003598283A3598283A0000000000005C457D
:105430000000484507FF882E000010410000484347
:1054400000000040CDCC4C400000164300007A43E1
:1054500000007A430000484300000000CDAC164431
:10546000CDCC4C40CDCC4C40CDCC4C40CDCC4C40A8
:105470007B147642689ACD393598283A3598283A7F
:105480000000000000005C450000484507FF882E32
:10549000000010410000484300000040CDCC4C40CB
:1054A0000000164300007A4300007A43000048439E
:1054B00000000000CDAC1644CDCC4C40CDCC4C40CF
:1054C000CDCC4C40CDCC4C407B147642689ACD3943
:1054D0003598283A3598283A0000000000005C45CD
:1054E0000000484507FF882E000010410000484397
:1054F00000000040CDCC4C400000164300007A4331
:1055000000007A430000484300000000CDAC164480
:10551000CDCC4C40CDCC4C40CDCC4C40CDCC4C40F7
:105520007B147642689ACD393598283A3598283ACE
:105530000000000000005C450000484507FF882E81
:10554000000010410000484300000040CDCC4C401A
:105550000000164300007A4300007A4300004843ED
:1055600000000000CDAC1644CDCC4C40CDCC4C401E
:10557000CDCC4C40CDCC4C407B147642689ACD3992
:105580003598283A3598283A0000000000005C451C
:105590000000484507FF882E2E2E5C2E2E5C2E2EF6
:1055A0005C2E2E5C2E2E5C2E2E5C2E2E5C447269A0
:1055B000766572735C53544D3332463478785F4865
:1055C000414C5F4472697665725C5372635C7374BC
:1055D0006D3332663478785F68616C5F7263632E16
:1055E000630000002E2E5C2E2E5C2E2E5C2E2E5C78
:1055F0002E2E5C2E2E5C2E2E5C44726976657273A4
:105600005C53544D3332463478785F48414C5F44A4
:1056100072697665725C5372635C73746D33326663
:105620003478785F68616C5F636F727465782E633D
:10563000000000002E2E5C2E2E5C2E2E5C2E2E5C8A
:105640002E2E5C2E2E5C2E2E5C4472697665727353
:105650005C53544D3332463478785F48414C5F4454
:1056600072697665725C5372635C73746D33326613
:105670003478785F68616C5F6770696F2E630000D3
:105680002E2E5C2E2E5C2E2E5C2E2E5C2E2E5C2E54
:105690002E5C2E2E5C447269766572735C53544D99
:1056A0003332463478785F48414C5F44726976659E
:1056B000725C5372635C73746D3332663478785FF6
:1056C00068616C5F7370692E630000002E2E5C2E83
:1056D0002E5C2E2E5C2E2E5C2E2E5C2E2E5C2E2E04
:1056E0005C447269766572735C53544D3332463450
:1056F00078785F48414C5F4472697665725C53729A
:10570000635C73746D3332663478785F68616C5FA4
:10571000756172742E6300004974206973206E6F86
:105720007420706F737369626C6520746F2072658A
:10573000636F676E697A6520616E79204C36343705
:1057400030206170706C69636174696F6E20636F83
:105750006D6D616E642E0A0D0A0D0000546865209F
:105760006E756D626572206F6620706172616D6525
:10577000746572732072656C6174656420746F2047
:10578000746865206170706C69636174696F6E2004
:10579000636F6D6D616E64206973206E6F7420722B
:1057A000696768742E0A0D0A0D000000CC570008C6
:1057B0000000002090030000480200081059000873
:1057C00090030020280600005E4D0008138132146B
:1057D00008E9291B0849081321331408412C1C0827
:1057E0000D2B1019041A8904137D311408A52A1BE6
:1057F00008D9041A15241AE1101AED081AF91C1A0E
:10580000B9081AC5081A611C1A051813612F140863
:10581000E5301B085D0C1A6D081AD5101AF5041A2C
:10582000150C1A8D041A9D0C1AB9041AC90C1AAD5C
:10583000041A41281A51081A25081A35082A8130F5
:10584000122502140822A6A22013024026080240B4
:10585000E8031383061C087B047C19081AD104137F
:10586000F1051B08DF101AF9041A1B0C1A13141A7D
:10587000B30C1AC9041A4B0C1A35041ABB041A5972
:105880001C1AA5081A43081A991C1A59041A79FCFB
:10589000413BB503089970012632010A35C93C41E4
:1058A0000A39DD780A39F1781A05FC0936780A35A3
:1058B000193C410A392D780A39417813A1021B0895
:1058C000C03C1310011B204C041331092A08545A00
:1058D000B5181A88145AC41832025AC9181112027B
:1058E0001B203C04291832035ADD181A78145AB4C4
:1058F000182930112C0402409942042C0802405C03
:10590000690C292029102104100240101324F400EE
:040000050800019559
:00000001FF
