:020000040800F2
:10000000700A0020A9010008B1010008B30100082E
:10001000B5010008B7010008B901000800000000A0
:10002000000000000000000000000000BB0100080C
:10003000BD01000800000000BF010008D94500080C
:10004000C3010008C3010008C3010008C301000880
:10005000C3010008C3010008870E00089D0E0008B8
:10006000C3010008C3010008A90E0008C30100086D
:10007000C3010008C3010008C3010008C301000850
:10008000C3010008C3010008C3010008000000000C
:10009000000000000000000000000000C301000894
:1000A000C3010008C3010008C3010008C301000820
:1000B000C3010008C3010008C3010008C301000810
:1000C000C3010008C3010008C3010008C301000800
:1000D000C3010008C30100085149000800000000E6
:1000E000910E0008C3010008C301000800000000D1
:1000F000000000000000000000000000C301000834
:1001000000000000C3010008C3010008C30100088B
:1001100000000000000000000000000000000000DF
:10012000C3010008C3010008C3010008C30100089F
:10013000C3010008000000000000000000000000F3
:10014000000000000000000000000000C3010008E3
:10015000C3010008C3010008C3010008C30100086F
:10016000C3010008C30100080000000000000000F7
:10017000000000000000000000000000000000007F
:1001800000000000C30100080000000000000000A3
:10019000C3010008DFF80CD000F076FB00480047F0
:1001A000C1670008700A00200648804706480047DB
:1001B000FEE7FEE7FEE7FEE7FEE7FEE7FEE7FEE717
:1001C000FEE7FEE77D460008950100082DE9FE4F99
:1001D000804681EA0300C00F0C46009021F00041E8
:1001E00023F00045B8EB0200A94105D24046214664
:1001F00090461C460B46024623F00040104347D071
:10020000270DC7F30A00C3F30A510290401A019068
:1002100040286BDAC3F3130040F4801B0098924629
:1002200020B10023D2EB030A63EB0B0B0198594674
:10023000C0F14002504600F0D1F906460D46504646
:100240005946019A00F0E9F910EB080061410024D9
:1002500087EA115284EAE7731A4340D0009A62B3E6
:10026000019A012A4FEA075215DC001B61EB0201DB
:100270004FF0004202EA0752CDE90042001C41F56E
:10028000801132462B4600F020FA03B0BDE8F08F13
:1002900040462146F9E7001B61EB0201001C41F5D5
:1002A000801300185B412018A2F5001747EB0301EB
:1002B00040EAD570B6196D4111E06D084FEA360677
:1002C00045EAC0754FEA0752001B61EB0201001CB2
:1002D00041F5801149084FEA30000019514132467A
:1002E0002B4603B0BDE8F04F00F0E0B900980122C2
:1002F00040000023D0EB020263EBE073009821463C
:100300004FEAE074B8EB000061EB0401E9E783F029
:1003100000435BE781F0004158E72DE9FE4F81EA99
:10032000030404F0004421F0004100944FF0000B5E
:1003300023F0004350EA01045ED052EA03045BD08C
:10034000C3F30A54C1F30A552C44A4F2F3340194C4
:10035000A0FB0254C1F3130141F48011C3F3130352
:1003600043F4801301FB024400FB034E840A970A06
:1003700044EA815447EA8357A4FB076802958D0A33
:1003800005FB07854FEA932C04FB0C542705029DBF
:100390004FEA065847EA1637B5EB08056EEB070C2F
:1003A000870E920E47EA811742EA8312A7FB0201E9
:1003B000B6EB0B0164EB00042B0D43EA0C335E1823
:1003C00044EB1C50DA465146E7FB0201C5F3130427
:1003D0004FEA0B3343EA14534FEA0432019C43EAD9
:1003E0000603A4F10C040294009CCDE900B400F0D3
:1003F0006CF903B0BDE8F08F00200146F9E72DE964
:10040000F04D81EA030404F0004B21F0004514464E
:100410004FF0000A23F0004150EA050220D054EAD0
:1004200001021DD0C5F30A570246C5F31303C1F3F9
:100430001300C1F30A5640F4801543F48013A7EB70
:100440000608101BD64608F2FD3873EB050002D3F0
:1004500008F1010801E092185B41B8F1000F03DADE
:1004600000200146BDE8F08D00204FF480110646C3
:1004700084460EE0171B73EB050705D3121B63EBD5
:10048000050306434CEA010C49084FEA3000921874
:100490005B4150EA0107EDD152EA030012D082EA33
:1004A000040083EA0501084305D0101BAB4106D2C6
:1004B0000122002306E000224FF0004302E06FF02B
:1004C000010253101AEB06004CEB085110EB0A0026
:1004D00041EB0B01BDE8F04D00F0E8B870B5C1F399
:1004E0000A5201F000450024C1F3130140F2FF332A
:1004F00041F480119A4201DA002070BD40F233438A
:100500009A42A2F2334203DC524200F076F800E055
:1005100090402C43F1D0404270BDC1F30A5210B557
:10052000C1F3130140F2FF3341F480119A4201DA22
:10053000002010BD40F233439A42A2F2334203DC62
:10054000524200F05AF810BD904010BD00F0004239
:1005500030F000400AD0C10D01F56071C0F3160003
:1005600042EA0151C208400711437047002001468A
:100570007047000030B5041E71F1000404DB4FF039
:100580000044404264EB0101141E73F1000405DBDA
:100590001C464FF00043524263EB04038B4208BFFA
:1005A000824230BD01F0004330B421F0004150EAF6
:1005B000010206D00A0DA2F56072C1F31301002AF0
:1005C00002DC30BC00207047440F44EAC104C10083
:1005D000E01830BC00EBC25000F031B8202A04DB38
:1005E000203A00FA02F1002070479140C2F1200346
:1005F00020FA03F3194390407047202A04DB203A85
:1006000021FA02F00021704721FA02F3D040C2F132
:1006100020029140084319467047202A06DBCB1779
:10062000203A41FA02F043EAE07306E041FA02F3AD
:10063000D040C2F12002914008431946704700297A
:10064000A8BF7047401C490008BF20F00100704758
:1006500010B4B0FA80FC00FA0CF050EA010404BFB8
:1006600010BC704749B1CCF1200421FA04F411FA0E
:100670000CF118BF012121430843A3EB0C01CB1D52
:100680004FEA00614FEA102042BF002010BC7047C3
:1006900000EBC35010440029A4BF10BC7047401C9D
:1006A000490008BF20F0010010BC704710B5141EAF
:1006B00073F1000408DA401C41F1000192185B411B
:1006C0001A4301D120F0010010BD2DE9F04D9246F2
:1006D0009B4611B1B1FA81F202E0B0FA80F2203209
:1006E0009046FFF77BFF04460F4640EA0A0041EAC6
:1006F0000B0153465A46084313D0114653EA0100F2
:1007000019D0C8F140025046FFF777FF05460E4664
:10071000504659464246FFF761FF084305D0012085
:1007200004E020463946BDE8F08D0020054346EA46
:10073000E0762C4337430A986305E40AA0EB0800EF
:100740000022FD0A44EA47540A3002D5002001463F
:10075000E9E7010510196941DDE90845001969411A
:10076000BDE8F04DA2E770B521F0004303430CD083
:10077000C1F30A550024D5EB040564EB0403D61736
:10078000AD1AB34102DB0020014670BD201841EBD9
:10079000025170BD2DE9F04D00231A461B1A8A4103
:1007A00003DB00200146BDE8F08DC1F30A52C1F31E
:1007B000130141F480154FF0000BD10702D100184E
:1007C0006D41521E0027044640F2FF11384601EBEE
:1007D000620A3E468046024600204FF48011FFF731
:1007E0000CFFC2197141BB1846EB0100B4EB030CBE
:1007F00075EB000C04D3E41A65EB000517460E46B2
:10080000241908F101006D4180463428E3DDF9190F
:1008100046EB0600091BA84103D24FF0FF321346F6
:1008200001E0002213461BEB070046EB0A51BDE82E
:10083000F04DFFF73BBF0EB5C10F80EAE0700844F2
:10084000CA07002140F233438DE80E000A460B46EA
:10085000FFF73BFF03B000BD30B5041E71F100048B
:1008600004DB4FF00044404264EB0101141E73F1BD
:10087000000405DB1C464FF00043524263EB0403C7
:10088000994208BF904230BD064C074D06E0E06833
:1008900040F0010394E8070098471034AC42F6D3C7
:1008A000FFF77CFCA0700008C070000870B58C18C1
:1008B00010F8015B15F0070301D110F8013B2A1174
:1008C00006D110F8012B03E010F8016B01F8016B61
:1008D0005B1EF9D12B0705D40023521E0DD401F85D
:1008E000013BFAE710F8013BCB1A921C03E013F826
:1008F000015B01F8015B521EF9D5A142D8D300205B
:1009000070BD000070B50446024D2146284600F037
:1009100021F870BDE402002070B50446024D214666
:10092000284600F017F870BDFC02002070B50446A0
:10093000024D2146284600F00DF870BD140300203A
:1009400070B50446024D2146284600F003F870BDFC
:100950002C03002070B504460D4620786169884755
:10096000E0684168284688472069416805F15800D9
:10097000884770BD00B50246002000F07DFA904225
:1009800001D10E4800BD012000F076FA904202D15C
:100990000A481830F6E7022000F06EFA904202D1C1
:1009A00006483030EEE7032000F066FA904202D1AC
:1009B00002484830E6E70020E4E70000E4020020B7
:1009C00010B50446012C06D1062000F063FD072077
:1009D00000F060FD05E0062000F026FD072000F095
:1009E00023FD10BD10B5002000F046FA034600F0CC
:1009F00021FA00F09FF900F0DFF80120FFF7E0FF97
:100A000010BD000070B50446024D2146284602F094
:100A100085F870BD0401002070B50446024D2146E2
:100A2000284602F07BF870BD4001002070B50446F6
:100A3000024D2146284602F071F870BD7C0100206D
:100A400070B50446024D2146284602F067F870BD95
:100A5000B801002070B50446024D2146284602F038
:100A60005DF870BDF401002070B50446024D2146CA
:100A7000284602F053F870BD3002002070B50446DD
:100A8000024D2146284602F049F870BD6C02002054
:100A900070B50446024D2146284602F03FF870BD6D
:100AA000A802002070B506460C461546304600F0F8
:100AB000C1F920B12946204601F0BAFF70BDFF20E0
:100AC000FCE770B506460C461546304600F0B2F914
:100AD00020B12946204602F0A5F970BDFF20FCE7B1
:100AE00070B505460C46284600F0A4F918B120461A
:100AF00002F0C4F970BD0020FCE770B505460C4655
:100B0000284600F097F910B1204602F0D9F970BDDF
:100B100070B505460C46284600F08CF910B1204609
:100B200002F0E8F970BD70B506460C461546304631
:100B300000F080F918B12946204602F0F5F970BDA1
:100B40002DE9F04107460C4615461E46384600F092
:100B500071F920B132462946204602F003FABDE879
:100B6000F0812DE9F04107460C4615461E46DDF89A
:100B70001880384600F05EF928B1434632462946CF
:100B8000204602F00FFABDE8F08170B505460C462C
:100B9000284600F04FF910B1204602F021FA70BD4E
:100BA00070B505460C46284600F044F910B12046C1
:100BB00002F030FA70BD000070B51D4A118950680E
:100BC000002200F0AFFB1A4A11895068012200F0A0
:100BD000A9FB002000F050F904461CE0204600F07C
:100BE00029F9144A11895068012200F09BFB00206A
:100BF00002F02AFA054607E0284602F0FFFC2846E4
:100C000002F03CF9681CC5B2012002F01DFAA842AE
:100C1000F2DA601CC4B2022000F02EF9A042DDDA44
:100C2000002000F029F9034600F004F970BD00002F
:100C300044030020B40300202DE9F04107460C4690
:100C400015461E46384600F0F5F820B132462946D2
:100C5000204602F003FABDE8F0812DE9F041074695
:100C60000C4615461E46384600F0E4F820B13246E0
:100C70002946204602F090FCBDE8F08170B505469B
:100C80000C46284600F0D6F810B1204602F0B6FC1B
:100C900070BD70B505460C46284600F0CBF810B183
:100CA000204602F0C5FC70BD2DE9F04107460C4618
:100CB00015461E46384600F0BDF820B1324629469A
:100CC000204602F0CFFCBDE8F0812DE9F041074657
:100CD0000C4615461E46384600F0ACF820B13246A8
:100CE0002946204602F0DAFCBDE8F08170B50546E1
:100CF0000C46284600F09EF810B1204602F0EAFCAF
:100D000070BD70B505460C46284600F093F810B14A
:100D1000204602F0F9FC70BD70B506460C4615463B
:100D2000304600F087F818B12946204602F006FD4B
:100D300070BD000010B586B03848006838490968B1
:100D40000843364908603648008901901120029016
:100D500000200390032004903149486801A900F065
:100D6000D5F82E4800682F49096808432B490860C8
:100D70002C48008901902C480290002003902949BA
:100D8000486801A900F0C2F800221146062000F0D0
:100D9000B7FB224800682549096808431F490860D5
:100DA00022480089019020480290002003901F49AA
:100DB000486801A900F0AAF800221146072000F0B7
:100DC0009FFB002000F058F8044620E0134800681C
:100DD00004EB4401164A52F8211008430F490860F9
:100DE00004EB4400114601EB8000008901900120D2
:100DF0000290002003900320049004EB440102EBD6
:100E00008101486801A900F081F8601CC4B2022089
:100E100000F032F8A042D9DA06B010BD30380240F6
:100E20004403002050030020000021105C03002038
:100E3000680300200146032918DA01EB41000C4A3F
:100E400052F820000B4A106001EB4100084A02EB07
:100E500080004068074A506001EB4100044A02EB01
:100E600080000089034A1081012070470020FCE7C0
:100E700068030020B40300200146032901DA084674
:100E80007047FF20FCE710B5012000F031F810BDDD
:100E900010B54FF4005000F02BF810BD10B5022033
:100EA00000F026F810BD000010B50748006800F0FB
:100EB000100040B1102004490860002002F0AAF898
:100EC000012002F0A7F810BD143C01400048704713
:100ED000186C000831B5002400F05EFA044600BF2B
:100EE00000F05AFA001B00998842F9D338BD7047C8
:100EF00010B5044604480068204020B10248046050
:100F00002046FFF7F4FF10BD143C01402DE9F843E3
:100F100006460C464FF00009C8460025CA488642DE
:100F20000ED0CA4886420BD0C948864208D0C9486C
:100F3000864205D0C848864202D0C848864200D1C1
:100F400003E0C521C6A005F0C9F9208880B200B130
:100F500003E0C621C2A005F0C1F9606830B3606843
:100F6000012823D06068112820D0606802281DD095
:100F7000606812281AD0C9496068884216D0C849EA
:100F80006068884212D0C749606888420ED0C6495E
:100F9000606888420AD0C5496068884206D0C44962
:100FA0006068884202D06068032800D103E0C7214E
:100FB000ABA005F093F9A06828B1A068012802D081
:100FC000A068022800D103E0C821A5A005F086F999
:100FD000002734E1012000FA07F9206800EA090837
:100FE000C8457DD16068022802D06068122863D1AC
:100FF0002069E8B32069092845D02069C0B3206979
:10100000B0B32069A0B3206990B3206901283AD019
:101010002069012837D02069022834D020690228AD
:1010200031D0206902282ED0206904282BD02069D5
:10103000042828D02069042825D02069052822D03A
:10104000206905281FD0206906281CD020690528A2
:1010500019D02069072816D02069072813D02069E5
:10106000082810D020690A280DD02069092800E03E
:1010700009E008D02069092805D020690C2802D091
:1010800020690F2800D103E0D92175A005F026F9C9
:10109000F90806F1200050F821507807C10E0F2002
:1010A000884085437907C90E206988400543F908BF
:1010B00006F1200040F8215035687900032088406F
:1010C0008543207900F003007900884005433560AE
:1010D000606801280AD06068022807D0606800E0D4
:1010E000ACE0112802D06068122823D1E06840B13A
:1010F000E068012805D0E068022802D0E0680328F3
:1011000000D103E0EC2156A005F0E8F8B5687900BD
:101110000320884085437900E06888400543B56036
:1011200075680120B84085432079C0F30010B840AD
:1011300005437560F5687900032088408543790090
:10114000A06888400543F560606800F08050B0F109
:10115000805F73D100BF5748006840F48040554914
:1011600008600846006800F48040009000BF00BF9F
:101170005148B90850F82150B807010F0F20884096
:1011800085433148864201D1002014E02F48864231
:1011900001D101200FE02E48864201D102200AE051
:1011A0002C48864201D1032005E02B48864201D11C
:1011B000042000E00520B907090F884005433E4898
:1011C000B90840F821503D48056825EA08056068DF
:1011D00000F48030B0F5803F01D145EA080537487A
:1011E0000560001D056825EA0805606800F4003008
:1011F000B0F5003F01D145EA08053048001D056003
:10120000001D056825EA0805606800F48010B0F547
:10121000801F01D145EA0805284808300560001DF7
:10122000056825EA0805606800F40010B0F5001FA5
:1012300001D145EA080521480C3005607F1C102FBC
:10124000FFF4C8AEBDE8F88300000240000402408D
:1012500000080240000C024000100240001C024046
:101260002E2E5C2E2E5C447269766572735C53542C
:101270004D3332463478785F48414C5F447269762A
:1012800065725C5372635C73746D33326634787864
:101290005F68616C5F6770696F2E630000001110FA
:1012A0000000211000003110000012100000221078
:1012B000000032104438024008380140003C014030
:1012C00070B506460C46A0B200B104E04FF4C871F8
:1012D00005A005F003F83069204008B1012500E0C1
:1012E0000025284670BD00002E2E5C2E2E5C447218
:1012F00069766572735C53544D3332463478785F47
:1013000048414C5F4472697665725C5372635C73EA
:10131000746D3332663478785F68616C5F677069CA
:101320006F2E630070B506460C461546A0B200B19C
:1013300004E040F2B11109A004F0D0FF0DB1012D7D
:1013400000D104E04FF4D97104A004F0C7FF0DB13F
:10135000B46101E02004B06170BD00002E2E5C2E4F
:101360002E5C447269766572735C53544D33324619
:101370003478785F48414C5F4472697665725C539B
:1013800072635C73746D3332663478785F68616C55
:101390005F6770696F2E6300014800687047000046
:1013A000B000002002480068401C014908607047F6
:1013B000B000002010B50D48006840F400700B49E3
:1013C00008600846006840F48060086008460068CD
:1013D00040F480700860032000F0FEF8002000F068
:1013E00007F800F017F8002010BD0000003C024094
:1013F00070B5044600F060FB4FF47A71B0FBF1F574
:10140000284601F0ECF900222146501E00F078F841
:10141000002070BD10B5072000F0DEF80022114654
:10142000501E00F06DF810BD10B50446002C00DB16
:1014300003E0E02106A004F051FF00BF04F01F010B
:10144000012088401249620941F8220000BF10BD06
:101450002E2E5C2E2E5C447269766572735C53543A
:101460004D3332463478785F48414C5F4472697638
:1014700065725C5372635C73746D33326634787872
:101480005F68616C5F636F727465782E6300000043
:1014900080E100E010B50446002C00DB03E0D02121
:1014A00007A004F01BFF00BF04F01F0101208840CB
:1014B0006109890001F1E021C1F8000100BF10BD00
:1014C0002E2E5C2E2E5C447269766572735C5354CA
:1014D0004D3332463478785F48414C5F44726976C8
:1014E00065725C5372635C73746D33326634787802
:1014F0005F68616C5F636F727465782E63000000D3
:101500002DE9F05F80460C4615460027102D00D2CD
:1015100003E0BC2120A004F0E1FE102C00D203E087
:10152000BD211DA004F0DAFE02F00EFF0746394689
:1015300022462B4601F00700C0F1070ABAF1040F5A
:1015400002D94FF0040A01E0C0F1070AD14600F1C8
:10155000040ABAF1070F02D24FF0000A01E0A0F12D
:10156000030AD4464FF0010A0AFA09FAAAF1010A5D
:101570000AEA020A0AFA0CFA4FF0010B0BFA0CFB0A
:10158000ABF1010B0BEA030B4AEA0B06314640466E
:1015900002F0E2FEBDE8F09F2E2E5C2E2E5C44721F
:1015A00069766572735C53544D3332463478785F94
:1015B00048414C5F4472697665725C5372635C7338
:1015C000746D3332663478785F68616C5F636F7214
:1015D0007465782E6300000010B50446072C07D010
:1015E000062C05D0052C03D0042C01D0032C00D1EF
:1015F00003E0A42109A004F071FE00BF04F007017C
:10160000164A10684FF6FF021040154A024342EA9C
:101610000120124A106000BF10BD00002E2E5C2E6B
:101620002E5C447269766572735C53544D33324656
:101630003478785F48414C5F4472697665725C53D8
:1016400072635C73746D3332663478785F68616C92
:101650005F636F727465782E630000000CED00E02C
:101660000000FA0570B504460D46002620680128E2
:1016700003D320680F2800D804E04FF41871FBA0B2
:1016800004F02CFE6DB1012D0BD0022D09D0032DDD
:1016900007D0042D05D0052D03D0062D01D0072D30
:1016A00000D104E040F26121F0A004F017FEFE48F2
:1016B000006800F00F00A8427CD2FB490D7008467C
:1016C000006800F00F00A84201D0012070BD207812
:1016D00000F00200022827D1A068B8B1A0688028D5
:1016E00014D0A068902811D0A068A0280ED0A068BF
:1016F000B0280BD0A068C02808D0A068D02805D09A
:10170000A068E02802D0A068F02800D104E040F2F0
:101710007721D6A004F0E2FDE448006820F0F00054
:10172000A1680843E1490860207800F00100002822
:1017300050D0606840B16068012805D06068022818
:1017400002D06068032800D104E040F27E21C7A0E7
:1017500004F0C4FD6068012807D1D4480838006847
:10176000C0F34040B8B90120B0E76068022802D059
:101770006068032807D1CD4808380068C0F340608E
:1017800048B90120A2E7C94808380068C0F3400002
:1017900008B901209AE7C548006820F00300616895
:1017A0000843C2490860FFF7F7FD06466068012854
:1017B00011D109E048E0FFF7EFFD801B41F28831CD
:1017C000884201D9032081E7B848006800F00C0086
:1017D0000428F0D1FDE06068022810D108E0FFF78E
:1017E000DBFD801B41F28831884201D903206DE77F
:1017F000AE48006800F00C000828F0D1E9E060680D
:10180000032810D108E0FFF7C7FD801B41F28831A3
:10181000884201D9032059E7A448006800F00C0071
:101820000328F0D1D5E008E0FFF7B6FD801B41F2B8
:101830008831884201D9032048E79C48006800F0BD
:101840000C000028F0D1C4E0207800F0020002284B
:1018500027D1A068B8B1A068802814D0A0689028CB
:1018600011D0A068A0280ED0A068B0280BD0A06826
:10187000C02808D0A068D02805D0A068E02802D0F1
:10188000A068F02800D104E040F2D12177A004F054
:1018900025FD8648006820F0F000A16808438349D0
:1018A0000860207800F0010000284FD0606840B147
:1018B0006068012805D06068022802D060680328AB
:1018C00000D104E04FF4367168A004F007FD6068B1
:1018D000012807D1754808380068C0F34040B8B9FE
:1018E0000120F3E66068022802D06068032807D16F
:1018F0006E4808380068C0F3406048B90120E5E64A
:101900006A4808380068C0F3400008B90120DDE6E5
:101910006648006820F00300616808436349086076
:10192000FFF73AFD06466068012810D108E0FFF78E
:1019300033FD801B41F28831884201D90320C5E67E
:101940005A48006800F00C000428F0D137E06068C5
:10195000022810D108E0FFF71FFD801B41F28831FB
:10196000884201D90320B1E65048006800F00C001D
:101970000828F0D123E06068032810D108E0FFF7C1
:101980000BFD801B41F28831884201D903209DE67E
:101990004648006800F00C000328F0D10FE008E092
:1019A000FFF7FAFC801B41F28831884201D90320FD
:1019B0008CE63E48006800F00C000028F0D13A495F
:1019C0000D700846006800F00F00A84201D0012009
:1019D0007CE6207800F0040004281FD1E06878B18C
:1019E000E068B0F5805F0BD0E068B0F5A05F07D08D
:1019F000E068B0F5C05F03D0E068B0F5E05F00D10B
:101A000004E040F2323119A004F068FC2748006875
:101A100020F4E050E168084324490860207800F091
:101A20000800082820D1206978B12069B0F5805FCE
:101A30000BD02069B0F5A05F07D02069B0F5C05F7A
:101A400003D02069B0F5E05F00D104E040F2393105
:101A500006A004F043FC1548006820F460402169AA
:101A600040EAC10011490860002021E02E2E5C2EC2
:101A70002E5C447269766572735C53544D33324602
:101A80003478785F48414C5F4472697665725C5384
:101A900072635C73746D3332663478785F68616C3E
:101AA0005F7263632E630000003C0240083802400E
:101AB000FFF79EFC002009E610B500F02FF8094959
:101AC000096801F0F001F02292FAA2F2B2FA82F271
:101AD000D140054A515CC840044908600846006886
:101AE00010BD000008380240066C00088C0300207E
:101AF00010B5FFF7E1FF0749096801F460414FF4B1
:101B0000604292FAA2F2B2FA82F2D140024A515CE9
:101B1000C84010BD08380240066C000870B50021AE
:101B2000002200230020274C246804F00C0424B178
:101B3000042C04D0082C41D103E0234840E0234882
:101B40003EE0204C241F246804F03F011D4C241F5C
:101B5000246804F4800484B11C4CB4FBF1F5194CE6
:101B6000241F246847F6C076344096FAA6F6B6FAE3
:101B700086F6F44005FB04F20FE0134CB4FBF1F5DC
:101B8000104C241F246847F6C076344096FAA6F617
:101B9000B6FA86F6F44005FB04F20A4C241F2468CA
:101BA00004F440344FF4403595FAA5F5B5FA85F5BF
:101BB000EC40641C6300B2FBF3F001E0024800BF9C
:101BC00000BF70BD083802400024F40000127A0003
:101BD00038B50446002520680F2800D804E04FF4EB
:101BE0008071F4A004F07AFB207800F00100002856
:101BF00074D0606828B16068012802D06068052848
:101C000000D104E040F20511EAA004F067FBF848B7
:101C1000006800F00C0004280DD0F548006800F0C2
:101C20000C00082813D1F248001F006800F480005F
:101C3000B0F5800F0BD1EE4808380068C0F3404083
:101C400000284BD06068002848D1012038BD002012
:101C5000E749891F0870FFF79FFB054608E0FFF77B
:101C60009BFB401B41F28831884201D90320EDE7FC
:101C7000DF4808380068C0F340400028EFD12079E1
:101C8000DB49891F08706068A0B1FFF785FB054636
:101C900008E0FFF781FB401B41F28831884201D9FF
:101CA0000320D3E7D24808380068C0F3404000283A
:101CB000EFD013E0FFF770FB054608E0FFF76CFB81
:101CC000401B41F28831884201D90320BEE7C84851
:101CD00008380068C0F340400028EFD1207800F0B9
:101CE000020002287DD1E06810B1E068012800D12F
:101CF00004E04FF4A371AFA004F0F0FA20691F28AC
:101D000000D804E040F24711AAA004F0E7FAB8486E
:101D1000006800F00C0058B1B548006800F00C00F5
:101D2000082821D1B248001F006800F48000D8B90B
:101D3000AF4808380068C0F3400020B1E0680128CF
:101D400001D0012082E7AA480838006820F0F80096
:101D5000F82292FAA2F2B2FA82F221699140084383
:101D6000A349083908603CE0E06828B30120A14994
:101D70000860FFF711FB054606E0FFF70DFB401B6F
:101D8000642801D9032061E7994808380068C0F346
:101D900040000028F1D096480838006820F0F8008C
:101DA000F82292FAA2F2B2FA82F221699140084333
:101DB0008F490839086014E000208E490860FFF759
:101DC000EBFA054606E0FFF7E7FA401B642801D965
:101DD00003203BE7864808380068C0F3400000282D
:101DE000F1D1207800F00800082837D1606910B1DF
:101DF0006069012800D104E040F287116DA004F071
:101E00006DFA6069A8B101207B490860FFF7C4FA48
:101E1000054606E0FFF7C0FA401B642801D90320FD
:101E200014E773486C300068C0F340000028F1D01C
:101E300014E0002070490860FFF7AEFA054606E09E
:101E4000FFF7AAFA401B642801D90320FEE6684880
:101E50006C300068C0F340000028F1D1207800F019
:101E6000040004287BD1A06828B1A068012802D012
:101E7000A068052800D104E040F2B1114DA004F0A3
:101E80002DFA00BF5A483830006840F08050584959
:101E9000383108600846006800F08050009000BFAC
:101EA00000BF5648006840F4807054490860FFF74E
:101EB00073FA054606E0FFF76FFA401B642801D964
:101EC0000320C3E64D48006800F480700028F2D07B
:101ED0000020474968310870FFF75EFA054608E0C0
:101EE000FFF75AFA401B41F28831884201D903209A
:101EF000ACE63F4868300068C0F340000028EFD1EE
:101F0000207A3B4968310870A068A0B1FFF744FA15
:101F1000054608E0FFF740FA401B41F2883188424D
:101F200001D9032092E6324868300068C0F34000CF
:101F30000028EFD013E0FFF72FFA054608E0FFF77F
:101F40002BFA401B41F28831884201D903207DE6FB
:101F5000274868300068C0F340000028EFD1A0692E
:101F600028B1A069012802D0A069022800D104E0AC
:101F700040F2F5110FA004F0B1F9A06900287AD061
:101F80001B48006800F00C00082875D0A0690228E2
:101F900073D1E06918B1E069B0F5800F00D104E0B9
:101FA0004FF4FF7103A004F099F9206A3F2827D865
:101FB0002CE000002E2E5C2E2E5C44726976657239
:101FC000735C53544D3332463478785F48414C5FEC
:101FD0004472697665725C5372635C73746D3332FC
:101FE000663478785F68616C5F7263632E630000AB
:101FF0000838024000004742800E4742007000400F
:1020000040F2FF11AFF2540004F068F9606AC02892
:1020100004D3606AB0F5D87F00D805E04FF40071B2
:10202000AFF2700004F05AF9A06A022808D0A06A42
:10203000042805D0A06A062802D0A06A082800D18A
:1020400005E040F20121AFF2940004F047F9E06AA4
:10205000042803D3E06A0F2800D805E040F20221EB
:10206000AFF2B00004F03AF9002034490866FFF7F7
:1020700093F9054609E05EE05BE045E0FFF78CF987
:10208000401B642801D90320E0E52D480068C0F317
:1020900040600028F2D1D4E90701084347F6C07236
:1020A00092FAA2F2B2FA82F2616A914008430122E6
:1020B000A16AC2EB51014FF4403292FAA2F2B2FA95
:1020C00082F2914008434FF0706292FAA2F2B2FAA3
:1020D00082F2E16A914008431949091D0860012014
:1020E00016490866FFF758F9054606E0FFF754F968
:1020F000401B642801D90320A8E511480068C0F3FB
:1021000040600028F2D016E000200C490866FFF776
:1021100043F9054606E0FFF73FF9401B642801D963
:10212000032093E506480068C0F340600028F2D120
:1021300001E001208AE5002088E500000000474218
:102140000038024010B504460CB9012010BD60688B
:1021500018B16068B0F5827F00D103E0B82162A0B9
:1021600004F0BCF8A06838B1A068B0F5806F03D067
:10217000A068B0F5004F00D103E0B9215AA004F0E7
:10218000ADF8E068B0F5006F01D0E06800B903E099
:10219000BA2155A004F0A2F8206910B120690228E4
:1021A00000D103E0BB2150A004F098F8606910B1A1
:1021B0006069012800D103E0BC214BA004F08EF837
:1021C000A069B0F5007F05D0A06918B1A069B0F58D
:1021D000802F00D103E0BD2143A004F07FF8E06927
:1021E000A0B1E069082811D0E06910280ED0E0699C
:1021F00018280BD0E069202808D0E069282805D0ED
:10220000E069302802D0E069382800D103E0BE211F
:1022100035A004F063F8206A10B1206A802800D14C
:1022200003E0BF2130A004F059F8606A10B1606A81
:10223000102800D103E0C0212BA004F04FF8A06AC1
:1022400018B1A06AB0F5005F00D103E0C12126A05B
:1022500004F044F8E06A20B1E06AB0F5803F00D2B3
:1022600003E0C22120A004F039F894F8510028B905
:10227000002084F85000204600F054F8022084F832
:1022800051002068006820F0400021680860D4E90F
:1022900001010843E1680843216908436169084373
:1022A000218B01F400710843E1690843216A084366
:1022B000A16A0843216808600421A06901EA10406E
:1022C000616A0843216848602168E06A0861206803
:1022D000C06920F400602168C861002060650120A9
:1022E00084F85100002031E72E2E5C2E2E5C4472C3
:1022F00069766572735C53544D3332463478785F37
:1023000048414C5F4472697665725C5372635C73DA
:10231000746D3332663478785F68616C5F737069AE
:102320002E63000010B586B004463F4920688842FD
:1023300047D100BF3D48006840F001003B490860BC
:102340000846006800F00100009000BF00BF00BF19
:102350000846006840F0020008600846006800F087
:102360000200009000BF00BF00BF3048143000687A
:1023700040F480502D49143108600846006800F48C
:102380008050009000BF00BFC0200190022002904A
:1023900000200390032004900520059001A9244803
:1023A000FEF7B4FD08200190022002900020039067
:1023B000032004900520059001A91E48FEF7A6FD04
:1023C00030E01D49206888422CD100BF17480068C2
:1023D00040F00200154908600846006800F002005D
:1023E000009000BF00BF00BF10481030006840F4EC
:1023F00080400E49103108600846006800F48040B3
:10240000009000BF00BF4FF4604001900220029096
:1024100000200390032004900520059001A90548A1
:10242000FEF774FD06B010BD0030014030380240A8
:102430000000024000040240003800402DE9F84F3F
:1024400004460E4617461D46DDF828904FF000085A
:10245000C24694F85180B8F1010F02D0B8F1220FB2
:1024600073D10EB107B115B90120BDE8F88FA0688E
:1024700000B904E04FF42671C9A003F02FFF00BF9C
:1024800094F85000012801D10220EEE7012084F8E1
:10249000500000BF94F85100012802D1322084F886
:1024A000510000206065A763A587E5872663A586A0
:1024B000E586A064E064A06AB0F5005F0DD100BFBE
:1024C0002068006820F400502168086020680068D7
:1024D00040F400502168086000BF2068006800F0E8
:1024E0004000402805D02068006840F04000216886
:1024F0000860E068B0F5006F75D1606830B1606861
:10250000B0F5827F0CD1E08E012809D1206B0088C4
:102510002168C860206B801C2063E08E401EE0862E
:10252000E08EF0B9A06AB0F5005F05D120680068C0
:1025300040F48050216808604B460022012120466B
:1025400001F01EFF10B103208FE726E12068C0686C
:10255000A16B0880A06B801CA063E08F401EE08709
:10256000C6E031E04B4600220221204601F008FF80
:1025700008B1032079E7206B00882168C860206BD0
:10258000801C2063E08E401EE086E08E48B9A06A81
:10259000B0F5005F05D12068006840F480502168E4
:1025A00008604B4600220121204601F0E9FE08B1F7
:1025B00003205AE72068C068A16B0880A06B801CCC
:1025C000A063E08F401EE087E08E0028CADC6068D0
:1025D0000028C5D14B4600220121204601F0D0FE43
:1025E00010B1032041E70AE02068C068A16B0880B1
:1025F000A06B801CA063E08F401EE08778E06068DD
:1026000030B16068B0F5827F0BD1E08E012808D12F
:10261000216B481C206308782168C860E08E401E4A
:10262000E086E08ED0B9A06AB0F5005F05D12068E1
:10263000006840F48050216808604B460022012168
:10264000204601F09DFE08B103200EE72068C06817
:10265000A16B0870E08F401EE08749E030E04B46F8
:1026600000220221204601F08BFE08B10320FCE687
:10267000216B481C206308782168C860E08E401EEA
:10268000E086E08E48B9A06AB0F5005F05D1206809
:10269000006840F48050216808604B460022012108
:1026A000204601F06DFE08B10320DEE62068C06818
:1026B000C1B2A26B501CA0631170E08F401EE08776
:1026C000E08E0028CBDC606890B94B4600220121E7
:1026D000204601F055FE08B10320C6E62068C06818
:1026E000C1B2A26B501CA0631170E08F401EE08746
:1026F000A06AB0F5005F12D14B46002201212046AE
:1027000001F03EFE28B1606D40F0020060650320DC
:10271000ABE62068C06880B20090BDF800004B4670
:1027200001228021204601F02BFE28B1606D40F08F
:1027300020006065032098E6012084F8510020689D
:102740008068C0F3001AA06AB0F5005F1FD1BAF12B
:10275000000F1CD0606D40F002006065A06AB0F50B
:10276000005F0DD100BF2068006820F40050216890
:1027700008602068006840F400502168086000BFCD
:1027800000BF002084F8500000BF01206DE600BFAC
:10279000002084F8500000BF67E6022065E60000D4
:1027A0002E2E5C2E2E5C447269766572735C5354D7
:1027B0004D3332463478785F48414C5F44726976D5
:1027C00065725C5372635C73746D3332663478780F
:1027D0005F68616C5F7370692E630000704770B54D
:1027E00004462546681EB0F1807F01D301200FE02A
:1027F000681E4FF0E02148610F214FF0FF3001F0DB
:10280000ABFD00204FF0E021886107200861002027
:1028100070BD10B5FFF7E2FF10BD7047F8B5044674
:10282000002500262068006800F001052068C068C7
:1028300000F480766DB166B100BF2068006800903A
:1028400020684068009000BF00BFE06B40F00100CE
:10285000E06320680068C0F340052068406900F02C
:1028600001066DB166B100BF206800680090206865
:102870004068009000BF00BFE06B40F00400E063E0
:1028800020680068C0F380052068406900F00106F8
:102890006DB166B100BF2068006800902068406894
:1028A000009000BF00BFE06B40F00200E0632068D2
:1028B0000068C0F3C0052068406900F001066DB1F2
:1028C00066B100BF206800680090206840680090F2
:1028D00000BF00BFE06B40F00800E06320680068C4
:1028E000C0F340152068C06800F020061DB116B185
:1028F000204601F019FF20680068C0F3C015206869
:10290000C06800F080061DB116B1204601F06AFFD4
:1029100020680068C0F380152068C06800F0400699
:102920001DB116B1204601F0DBFEE06B28B101209D
:1029300084F839002046FFF770FFF8BD70472DE995
:10294000F04704460D46164699464FF0000894F8A5
:102950003980B8F1010F02D0B8F1220F65D105B16D
:1029600016B90120BDE8F08700BF94F838000128AF
:1029700001D10220F6E7012084F8380000BF0020D2
:10298000E06394F83900222803D1322084F839001A
:1029900002E0122084F83900A684E68428E0E08C66
:1029A000401EE084A068B0F5805F14D14B46002241
:1029B0008021204601F04EFF08B10320D2E72F46C8
:1029C0003888C0F3080021684860206908B9AD1C48
:1029D0000EE06D1C0CE04B4600228021204601F0E9
:1029E00039FF08B10320BDE715F8010B21684860E5
:1029F000E08C0028D3DC4B4600224021204601F029
:102A000029FF08B10320ADE794F83900322803D13B
:102A1000222084F8390002E0012084F8390000BF48
:102A2000002084F8380000BF9CE702209AE7704736
:102A300070B505460C4600261821284600F0F2F92C
:102A40003549096808800F2C62D2DFE804F0080ECF
:102A5000141A20262C32383E444A50565C002E4828
:102A60000068007800F0010652E02B48006800780A
:102A7000C0F340064CE0284800680078C0F38006A8
:102A800046E0254800680078C0F3C00640E02248D0
:102A900000680078C0F300163AE01F48006800782C
:102AA000C0F3411634E01C4800680078C0F3C0163B
:102AB0002EE0194800680088C0F3002628E0164878
:102AC00000680088C0F3402622E0134800680088B0
:102AD000C0F380261CE0104800680088C0F3C026C0
:102AE00016E00D4800680088C0F3003610E00A4880
:102AF00000680088C0F340360AE007480068008894
:102B0000C0F3803604E0044800680088C60B00BFAC
:102B100000BF304670BD0000A800002070B504461C
:102B20000D46383555ED090AB0EE600A01F0B2FCE9
:102B3000A08355ED080AB0EE600A01F0C3FCE08303
:102B400055ED070AB0EE600A01F016FD208455ED40
:102B5000060AB0EE600A01F027FD608455ED050A13
:102B6000B0EE600A01F0C6FCA08415ED040ADFEDAA
:102B70007E0A20EE200A55ED0E0A80EE201ABCEEE9
:102B8000C10A10EE100AC1B22620015515ED030A44
:102B9000DFED750A20EE200A55ED0E0A80EE201AB0
:102BA000BCEEC10A10EE100AC1B22720015515ED86
:102BB000020ADFED6D0A20EE200A55ED0E0A80EEC6
:102BC000201ABCEEC10A10EE100AC1B2282001552D
:102BD00015ED010ADFED640A20EE200A55ED0E0A1C
:102BE00080EE201ABCEEC10A10EE100AC1B22920F4
:102BF0000155D5ED000AB0EE600A01F0A5FC608534
:102C0000D5ED010AB0EE600A03F020FE84F82C0036
:102C1000D5ED020AB0EE600A03F0E8FD84F82D005D
:102C2000D5ED030AB0EE600A03F0F8FD84F82E003B
:102C3000297C84F82F10D5ED050AB0EE600A03F068
:102C40005BFD84F83100D5ED060AB0EE600A03F0B2
:102C500085FD84F83200297F84F83310697F84F879
:102C60003410E98B383DE186A28B2078A1680B688F
:102C700004219847E28B2078A1680B6805219847CA
:102C8000228C2078A1680B6806219847628C2078F6
:102C9000A1680B6807219847A28C2078A1680B686F
:102CA0000821984726210A5D2078A1680B68092130
:102CB000984727210A5D2078A1680B680A21984768
:102CC00028210A5D2078A1680B680B2198472921EB
:102CD0000A5D2078A1680B680C219847628D2078E6
:102CE000A1680B680D21984794F82C202078A168E2
:102CF0000B680E21984794F82D202078A1680B6866
:102D00000F21984794F82E202078A1680B68102195
:102D1000984794F82F202078A1680B6811219847D4
:102D200094F831202078A1680B681321984794F813
:102D300032202078A1680B681421984794F833203A
:102D40002078A1680B681521984794F834202078E2
:102D5000A1680B6816219847E28E2078A1680B685D
:102D60001721984770BD000000008043F8B5054664
:102D70000E46002016490870002425E0154A1189E6
:102D800050680022FEF7CEFA0A2006EB440205EB5B
:102D90004401022300901048FFF750FB0D4A1189AF
:102DA00050680122FEF7BEFA00200C49087005E0C9
:102DB00000BF0A480078401C08490870074800789E
:102DC0001428F5DB601CC4B2042CD7DBF8BD00006E
:102DD000A4000020B403002010040020AC00002058
:102DE00070B503460C460020012108E004EB4105C4
:102DF000ED5C561AF600B54028434D1CE9B2032994
:102E0000F4DD70BD70B5DDE9044501EB00163270EC
:102E100001EB0016736001EB0016B46001EB0016C5
:102E2000F56070BD2DE9FC4105460C460020009080
:102E3000234602220D490190284600F03DF90C4935
:102E40000A4800F057F90B490948FFF78FFF04EBD8
:102E50008400094901EB8000867B324605492846FB
:102E6000FFF7BEFF07463846BDE8FC81940300200B
:102E7000940000209C000020EC6800087CB504460B
:102E800000200090034612220A490190204600F0DB
:102E900013F90949074800F02DF908490648FFF7DA
:102EA00065FF022205492046FFF79AFF85B22846B2
:102EB0007CBD000094030020940000209C000020B2
:102EC0001CB504460020009003460A2206490190E2
:102ED000204600F0F1F80549034800F00BF90449D9
:102EE0000248FFF743FF1CBD94030020940000201C
:102EF0009C0000201CB504460020009003460B22D5
:102F000006490190204600F0D7F80549034800F033
:102F1000F1F804490248FFF729FF1CBD9403002083
:102F2000940000209C0000207CB505460C46B4F5BA
:102F3000800F10D2002000902346062206490190FF
:102F4000284600F0B9F80549034800F0D3F80449D1
:102F50000248FFF70BFF7CBD940300209400002083
:102F60009C0000207CB506460D461446B4F5800F43
:102F700010D200202B4607220749CDE900403046F9
:102F800000F09AF80549044800F0B4F804490348F1
:102F9000FFF7ECFE7CBD00009403002094000020AD
:102FA0009C0000202DE9FC4107460C4615461E46B4
:102FB0002346082207493846CDE9005600F07CF840
:102FC0000549044800F096F804490348FFF7CEFE8F
:102FD000BDE8FC8194030020940000209C000020A8
:102FE0001CB50446002000900346112206490190BA
:102FF000204600F061F80549034800F07BF80449D9
:103000000248FFF7B3FE1CBD94030020940000208B
:103010009C0000201CB504460020009003460F22AF
:1030200006490190204600F047F80549034800F0A2
:1030300061F804490248FFF799FE1CBD9403002083
:10304000940000209C000020014619B1002903DDF6
:10305000022901DA08467047FF20FCE77CB50646E6
:103060000C4615460020234605220749CDE90050AD
:10307000304600F021F80549034800F03BF80449C8
:103080000248FFF773FE7CBD9403002094000020EB
:103090009C00002010B50549054800F02BF80549B3
:1030A0000248FFF763FE034810BD000094000020B3
:1030B000940300209C0000202DE9FC4305460C46AB
:1030C00016461F46DDE909890948007828B901201C
:1030D00007490870204600F07BFA3B4632462146FD
:1030E0002846CDE90089FFF78DFEBDE8FC8300008E
:1030F000A4000020F0B503460A46002500210EE09A
:10310000002008E04FF0000C2E466F1CFDB202F8C4
:1031100006C0461CF0B20228F4DB4E1CF1B20429B2
:10312000EEDB00201DE103EB00163678C6EBC60689
:103130008E4F07EB4606367B165403EB00163678A7
:10314000132E0BD2DFE806F00A0B313E5B68859642
:10315000B3DDFEFDFCFBFAF9F8F7F600FEE0165CC5
:1031600003EB00177F6807EB8707DFF804C21CF842
:1031700027703E43165403EB0016766806EB86066E
:10318000674607EB8606B47B01210AE003EB0016D5
:10319000B668671AFF00FE4000EB4107D6554E1C8B
:1031A000F1B2661CB142F1DBD8E0165C03EB00170C
:1031B0007F6807EB8707DFF8B8C11CF827703E432C
:1031C0001654CBE0165C03EB00177F6807EBC707CC
:1031D000DFF8A0C167443F7A3E43165401210BE05B
:1031E00003EB0016B668C1F10307FF00FE4000EBD9
:1031F0004107D6554E1CF1B20429F1DBAEE0165C56
:1032000003EB00177F6807EBC707DFF868C1674467
:103210003F7A3E431654A1E0165C03EB00177F682B
:1032200007EBC707DFF84CC167443F7A3E431654AB
:1032300001210BE003EB0016B668C1F10307FF00A4
:10324000FE4000EB4107D6554E1CF1B20429F1DBDC
:1032500084E001210BE003EB00167668C1F103075F
:10326000FF00FE4000EB4107D6554E1CF1B2042989
:10327000F1DB73E0165C03EB00177F6807EBC70711
:10328000DFF8F0C067443F7A3E43165401210BE05B
:1032900003EB0016B668C1F10307FF00FE4000EB28
:1032A0004107D6554E1CF1B20429F1DB56E0165CFD
:1032B00003EB00177F6807EB8707DFF8BCC06744A4
:1032C0003F7946EAC7061654165C03EB0017BF6841
:1032D00007EBC707DFF89CC067443F7A3E431654AC
:1032E00001210BE003EB0016F668C1F10307FF00B4
:1032F000FE4000EB4107D6554E1CF1B20429F1DB2C
:103300002CE0165C03EB00177F6807EB8707DFF8FC
:1033100068C067443F7946EAC7061654165C03EB5B
:103320000017BF6807EBC707DFF848C067443F7A5C
:103330003E4308E011E00FE00DE00BE009E007E09C
:1033400005E003E001E0165408E007E006E005E0D0
:1033500004E003E002E001E000E000BF00BF461C23
:10336000F0B20228FFF6DFAEF0BD0000E06A000810
:10337000EC680008EA6B0008FC6B00083CB50546E9
:103380000C46002000902346022203490190284663
:10339000FFF792FE3CBD0000940300201CB50446DC
:1033A0000020009003461222024901902046FFF7B8
:1033B00083FE1CBD940300201CB504460020009031
:1033C00003460A22024901902046FFF775FE1CBD04
:1033D000940300201CB504460020009003460B22F5
:1033E000024901902046FFF767FE1CBD94030020B0
:1033F0003CB505460C4600200090234606220349B2
:1034000001902846FFF758FE3CBD000094030020C1
:103410007CB506460C461546002023460722034984
:10342000CDE900503046FFF747FE7CBD94030020F5
:10343000FCB507460C4615461E462346082203499E
:103440003846CDE90056FFF737FEFCBD9403002057
:103450001CB5044600200090034611220249019049
:103460002046FFF729FE1CBD940300201CB504462E
:103470000020009003460F22024901902046FFF7EA
:103480001BFE1CBD940300207CB506460C46154669
:103490000020234605220349CDE900503046FFF7BE
:1034A0000BFE7CBD940300207CB506460C461546F9
:1034B0000020234609220349CDE900503046FFF79A
:1034C000FBFD7CBD940300201CB504460020009049
:1034D00003460D22024901902046FFF7EDFD1CBD79
:1034E000940300201CB504460020009003460C22E3
:1034F000024901902046FFF7DFFD1CBD9403002028
:103500007CB506460C461546002023460322034997
:10351000CDE900503046FFF7CFFD7CBD940300207D
:103520007CB506460C461546002023460122034979
:10353000CDE900503046FFF7BFFD7CBD940300206D
:103540001CB5044600200090034610220249019059
:103550002046FFF7B1FD1CBD940300201CB50446B6
:103560000020009003460E22024901902046FFF7FA
:10357000A3FD1CBD940300203CB505460C4600206D
:10358000009023460422034901902846FFF794FD4A
:103590003CBD0000940300207CB506460C46154651
:1035A0000020234609220749CDE900503046FFF7A5
:1035B00083FD05490348FFF79DFD04490248FFF7D5
:1035C000D5FB7CBD94030020940000209C000020CB
:1035D000014600200EE0002201EB00131A7001EBFF
:1035E00000135A6001EB00139A6001EB0013DA60DC
:1035F000421CD0B20228EEDB704700001CB5044626
:103600000020009003460D22064901902046FFF756
:1036100053FD05490348FFF76DFD04490248FFF7D4
:10362000A5FB1CBD94030020940000209C000020FA
:103630001CB504460020009003460C220649019068
:103640002046FFF739FD05490348FFF753FD0449BC
:103650000248FFF78BFB1CBD940300209400002060
:103660009C0000207CB506460C46154600202346EB
:1036700003220749CDE900503046FFF71DFD0549FB
:103680000348FFF737FD04490248FFF76FFB7CBD95
:1036900094030020940000209C0000207CB5064686
:1036A0000C4615460020234601220749CDE900506B
:1036B0003046FFF701FD05490348FFF71BFD0449AC
:1036C0000248FFF753FB7CBD9403002094000020C8
:1036D0009C0000201CB504460020009003461022E8
:1036E000064901902046FFF7E7FC05490348FFF72C
:1036F00001FD04490248FFF739FB1CBD940300207B
:10370000940000209C0000201CB50446002000907E
:1037100003460E22064901902046FFF7CDFC0549DD
:103720000348FFF7E7FC04490248FFF71FFB1CBDF5
:1037300094030020940000209C0000207CB50546E6
:103740000C46002000902346042207490190284699
:10375000FFF7B2FC05490448FFF7CCFC04490348D5
:10376000FFF704FB7CBD00009403002094000020C0
:103770009C0000207047000070B521482149086076
:103780004FF48270486000211E488160C1600221B0
:1037900001610121416149028161002101624162AF
:1037A0008162FEF7A5F906461748B6FBF0F085B230
:1037B000022D01DA00241DE0042D01DA082419E0AD
:1037C000082D01DA102415E0102D01DA182411E07B
:1037D000202D01DA20240DE0402D01DA282409E013
:1037E000802D01DA302405E0FF2D01DC382401E0D2
:1037F00000BFFEE70348C461FEF7A4FC70BD0000F3
:103800000030014010040020404B4C0010B5FFF781
:10381000B3FF10BD11B52DED040B97B0FDF7CAFD38
:1038200000BFFE48006840F00100FC4908600846FF
:10383000006800F001000B9000BF00BF8815F84938
:1038400008600020486088600220C860F548FDF7E5
:103850005DFB00BFF148006840F00100EF490860DF
:103860000846006800F001000B9000BF00BF48153B
:10387000EB4908600020486088600220C860E94881
:10388000FDF744FB00BFE548006840F00100E34954
:1038900008600846006800F001000B9000BF00BF00
:1038A0000120DF4908600020486088600220C8606D
:1038B000DC48FDF72BFB0020FDF7DEFA119001201C
:1038C000FDF7DAFA10900220FDF7D6FA0F90FDF717
:1038D000FDFA1390002015901AE01598FDF7CCFA28
:1038E0000B90FDF747F814901598410001EB41004B
:1038F00000EBC101139800EBC100129014984068CE
:103900000B900B99129888471598401CC0B21590DF
:1039100015980328E1DB1B9800287DD1FFF794FB65
:103920000B9014988068C06A0A90DDE90A210F980C
:1039300090470020FFF788FB0B901498806800697F
:103940004FF4A06301220A90DDE90A410F98A047D5
:1039500000BF0020FFF778FB0B9014988068806C04
:1039600001220A90DDE90A310F9898470028F0D02B
:103970000020FFF769FB0B9014988068406B0A9059
:10398000DDE90A210F9890474FF47A70FDF7A2FA0B
:103990000020FFF759FB0B901498806800694FF4E2
:1039A000206300220A90DDE90A410F98A04700BF7A
:1039B0000020FFF749FB0B9014988068806C01226F
:1039C0000A90DDE90A310F9898470028F0D04FF4AB
:1039D0007A70FDF77FFA0020FFF736FB0B90149802
:1039E0008068406A0A90DDE90A210F9890479FEDB0
:1039F0008E0A02F04BFCBCEEC00A8DED0B0A0120D2
:103A0000FFF722FB0A901498806800690990012250
:103A1000DDE909410B9B00E0EBE11198A04700BFF5
:103A20000120FFF711FB0B9014988068806C012235
:103A30000A90DDE90A31119898470028F0D000205B
:103A4000FFF702FB0B9014988068C06A0A90DDE9CA
:103A50000A21119890470020FFF7F6FA0B9014986E
:103A60008068806847F2305301220A90DDE90A41FC
:103A70001198A04700BF4FF480716A48FDF720FC01
:103A80000028F8D00020FFF7DFFA0B901498806828
:103A9000806B0A90DDE90A21119890470020FFF71A
:103AA000D3FA0B9014988068806847F23053002254
:103AB0000A90DDE90A411198A04700BF4FF48071D8
:103AC0005848FDF7FDFB0028F8D1FFF7BDFA0B9031
:103AD00014988068806B0A90DDE90A21119890475C
:103AE0000020FFF7B1FA0B9014988068C06A0A9022
:103AF000DDE90A21119890479FED4C0A02F0C6FBC0
:103B00008DED050A0598FCF721FD9FED490B53EC5F
:103B1000102BCDE906019DED060B51EC100BFCF7C7
:103B2000FCFBCDE908019DED080B51EC100BFCF7F7
:103B3000F4FC0B900020FFF787FA0A901498806835
:103B4000006909900022DDE909410B9B1198A0470B
:103B500000BF0020FFF778FA0B9014988068806C03
:103B600001220A90DDE90A31119898470028F0D027
:103B70000120FFF769FA0B9014988068C06A0A90D8
:103B8000DDE90A21119890470120FFF75DFA0B90BB
:103B900014988068806847F2305301220A90DDE96A
:103BA0000A411198A04700BF4FF400711D48FDF76E
:103BB00087FB0028F8D00120FFF746FA0B901498F5
:103BC0008068806B0A90DDE90A21119890470120F6
:103BD000FFF73AFA0B9014988068806847F23053E8
:103BE00000220A90DDE90A411198A04700BF4FF476
:103BF00000710C48FDF764FB0028F8D10120FFF7A5
:103C000023FA0B9014988068806B0A90DDE90A21F2
:103C1000119890470120FFF717FA0DE03038024065
:103C2000C405002000000240DB0FC93FF90FC93F67
:103C3000000000000000F83F0B9014988068C06AF4
:103C40000A90DDE90A21119890479FEDFE0A02F0E3
:103C50001DFB8DED050A0598FCF778FC1FED0C0B9C
:103C600053EC102BCDE906019DED060B51EC100B2A
:103C7000FCF753FBCDE908019DED080B51EC100B4F
:103C8000FCF74BFC0B900120FFF7DEF90A9014982B
:103C90008068006909900022DDE909410B9B1198B9
:103CA000A04700BF0120FFF7CFF90B901498806860
:103CB000806C01220A90DDE90A31119898470028AA
:103CC000F0D00120FFF7C0F90B9014988068C06A0B
:103CD0000A90DDE90A21109890470120FFF7B4F916
:103CE0000B9014988068806847F2305301220A9044
:103CF000DDE90A411098A04700BF0121D248FDF735
:103D0000DFFA0028F9D00120FFF79EF90B901498F4
:103D10008068806B0A90DDE90A21109890470120A5
:103D2000FFF792F90B9014988068806847F230533F
:103D300000220A90DDE90A411098A04700BF012146
:103D4000C148FDF7BDFA0028F9D10120FFF77CF941
:103D50000B9014988068806B0A90DDE90A21109816
:103D600090470120FFF770F90B9014988068C06AA3
:103D70000A90DDE90A21109890479FEDB40A02F0FD
:103D800085FA8DED050A0598FCF7E0FB1FED580B51
:103D900053EC102BCDE906019DED060B51EC100BF9
:103DA000FCF7BBFACDE908019DED080B51EC100BB7
:103DB000FCF7B3FB0B900120FFF746F90A9014982B
:103DC0008068006909900022DDE909410B9B109889
:103DD000A04700BF0120FFF737F90B9014988068C7
:103DE000806C01220A90DDE90A311098984700287A
:103DF000F0D00120FFF728F90123152201460B908E
:103E00000F98FCF762FF0120FFF71EF9C823092273
:103E100001460B900F98FCF758FF0120FFF714F9AB
:103E2000C8230B2201460B900F98FCF74EFF012090
:103E3000FFF70AF9C8230C2201460B900F98FCF7F4
:103E400044FF0120FFF700F9C8230A2201460B9026
:103E50000F98FCF73AFF0020FFF7F6F80B90149844
:103E60008068C06A0A90DDE90A2110989047002016
:103E7000FFF7EAF80B9014988068C06A0A90DDE9B1
:103E80000A21119890470120FFF7DEF80B90149853
:103E90008068C06A0A90DDE90A21119890470120E4
:103EA000FFF7D2F80B9014988068C06A0A90DDE999
:103EB0000A210F9890479DED190ADFED650A30EE53
:103EC000600A8DED190ADDED180A9DED170A02F062
:103ED0006DFA8DED060A9DED060A02F0D7F98DED1B
:103EE000070A0798FCF732FB1FEDAF0B53EC102BC2
:103EF000CDE908019DED080B51EC100BFCF77FFAA2
:103F0000CDE90A019DED0A0B51EC100BFCF74AFBC1
:103F10000E909DED191ADDED180A9DED170A02F0BD
:103F200085FA8DED060A9DED060A02F0AFF98DEDDA
:103F3000070A0798FCF70AFB1FEDC30B53EC102B85
:103F4000CDE908019DED080B51EC100BFCF7E5F9EC
:103F5000CDE90A019DED0A0B51EC100BFCF722FB99
:103F60000D909DED191ADDED180A9DED170A02F06E
:103F700009FB8DED010A0198FCF7E8FA9FED350B7E
:103F800053EC102BCDE902019DED020B51EC100B0F
:103F9000FCF7BDF9CDE904019DED040B51EC100BCC
:103FA000FCF700FB06909DED060A02F06FF98DED1F
:103FB000070A0798FCF7CAFA1FEDE30B53EC102B26
:103FC000CDE908019DED080B51EC100BFCF7A5F9AC
:103FD000CDE90A019DED0A0B51EC100BFCF7E2FA5A
:103FE0000C909DED1A0A02F061FB0B900020FFF788
:103FF0002BF80A9014988068006909900022DDE986
:1040000009410B9B0F98A04700BF0020FFF71CF849
:104010000B9014988068806C01220A90DDE90A31C7
:104020000F9898470028F0D00E98FCF78FFACDE94A
:1040300004019DED040B01F0C7F98DED060B9DED1C
:10404000060B0BE0A60A863F00000240960A063FD8
:1040500000005C42893ABD9C23FCE03F51EC100B10
:10406000FCF75BFA0B909DED0E0A02F015FB0A902F
:104070000020FEF7E9FF0990149880680069089015
:10408000DDE90841DDE90A231098A04700BF0020C0
:10409000FEF7DAFF0B9014988068806C01220A907A
:1040A000DDE90A31109898470028F0D00D98FCF708
:1040B0004DFACDE904019DED040B01F085F98DED7C
:1040C000060B9DED060B51EC100BFCF726FA0B903E
:1040D0009DED0D0A02F0E0FA0A900020FEF7B4FF11
:1040E00009901498806800690890DDE90841DDE9CD
:1040F0000A231198A04700BF0020FEF7A5FF0B90F0
:1041000014988068806C01220A90DDE90A311198C8
:1041100098470028F0D00C98FCF718FACDE9040174
:104120009DED040B01F050F98DED060B9DED060B96
:1041300051EC100BFCF7F1F90B909DED0C0A02F01D
:10414000ABFA0A900120FEF77FFF0990149880686F
:1041500000690890DDE90841DDE90A231198A047CC
:1041600000BF0120FEF770FF0B9014988068806CF0
:1041700001220A90DDE90A31119898470028F0D011
:1041800000BF0020FEF760FF0B9014988068806CE1
:1041900001220A90DDE90A31119898470028F0D0F1
:1041A00000BF0020FEF750FF0B9014988068806CD1
:1041B00001220A90DDE90A31109898470028F0D0D2
:1041C00042F21070FCF786FE1B98E8B90120FEF75A
:1041D0003BFF0B90149880680069852300220A90A9
:1041E000DDE90A410F98A04700BF0120FEF72CFF30
:1041F0000B9014988068806C01220A90DDE90A31E6
:104200000F9898470028F0D01B9801281CD1FEF782
:104210001BFF0B90149880680069852301220A9087
:10422000DDE90A410F98A04700BF0120FEF70CFF0F
:104230000B9014988068806C01220A90DDE90A31A5
:104240000F9898470028F0D00020FEF7FDFE0B9055
:1042500014988068406A0A90DDE90A211098904716
:104260000120FEF7F1FE0B9014988068406A0A90D6
:10427000DDE90A21119890470020FEF7E5FE0B903A
:1042800014988068406A0A90DDE90A2111989047E5
:104290000020FEF7D9FE0B9014988068406A0A90BF
:1042A000DDE90A210F98904700BF0120FEF7CCFE00
:1042B0000B9014988068806C01220A90DDE90A3125
:1042C000119898470028F0D000BF0020FEF7BCFEF0
:1042D0000B9014988068806C01220A90DDE90A3105
:1042E000119898470028F0D000BF0020FEF7ACFEE0
:1042F0000B9014988068806C01220A90DDE90A31E5
:10430000109898470028F0D000BF0020FEF79CFED0
:104310000B9014988068806C01220A90DDE90A31C4
:104320000F9898470028F0D04FF4FA60FCF7D2FDC0
:104330001CB010BD10B5FDF73DF800F053F9FFF7C4
:1043400019FAFFF763FA10BD02480068C0F30220B3
:10435000704700000CED00E010B5002807DA0A07EE
:10436000140E054A00F00F031B1FD45403E00A0784
:10437000130E024A135410BD18ED00E000E400E0F3
:104380002DE9F04104460E4617461D464FF0000841
:10439000FDF702F88046002F3ED132E0681C78B36A
:1043A0002DB1FCF7F9FFA0EB0800A84229D920683D
:1043B000406820F0E000216848602068006820F034
:1043C000400021680860A06AB0F5005F0DD100BF11
:1043D0002068006820F400502168086020680068A8
:1043E00040F400502168086000BF012084F85100AB
:1043F00000BF002084F8500000BF0320BDE8F0811A
:10440000FFE7206880683040B04201D1012000E021
:1044100000200028C2D03BE030E0681C70B32DB112
:10442000FCF7BAFFA0EB0800A84227D92068406833
:1044300020F0E000216848602068006820F040001B
:1044400021680860A06AB0F5005F0DD100BF206848
:10445000006820F40050216808602068006840F47B
:1044600000502168086000BF012084F8510000BF9F
:10447000002084F8500000BF0320BFE72068806858
:104480003040B04201D1012000E000200028C4D11A
:104490000020B3E7DFED090AB4EEE00AF1EE10FA0E
:1044A00009D8DFED070A80EE201AFCEEC10A10EEF3
:1044B000900A80B270470020FCE7000071C6684790
:1044C000FED46841DFED090AB4EEE00AF1EE10FA1D
:1044D00009D8DFED070A80EE201AFCEEC10A10EEC3
:1044E000900A80B270470020FCE7000071C6684760
:1044F000FED4684110B52DED048BB0EE408A18EE65
:10450000100AFCF723F841EC190B9FED0C0B53EC50
:10451000102BFCF72FF80FD8DFED0A0A88EE200ADF
:10452000F6EE000A30EE600ABCEEC00A10EE100A89
:1045300080B2BDEC048B10BD0020FAE70000000043
:10454000307CCE4000007441DFED090AB4EEE00A91
:10455000F1EE10FA09D8DFED070A80EE201AFCEE22
:10456000C10A10EE900A80B270470020FCE70000FC
:1045700023207444F423743DDFED090AB4EEE00A0D
:10458000F1EE10FA09D8DFED070A80EE201AFCEEF2
:10459000C10A10EE900A80B270470020FCE70000CC
:1045A00002E773460B247441DFED090AB4EEE00A1A
:1045B000F1EE10FA09D8DFED070A80EE201AFCEEC2
:1045C000C10A10EE900A80B270470020FCE700009C
:1045D000BF1474440124743E10B5FCF7E3FEFEF7EB
:1045E00018F910BD00B593B000BF2248006840F034
:1045F0008050204908600846006800F08050019013
:1046000000BF00BF00BF1C48006820F4404040F4D9
:104610000040194908600846006800F440400190D5
:1046200000BF00BF0220079001200A9010200B90CD
:1046300002200D9000210E9110210F914FF4A871CE
:104640001091042111910721129107A8FDF7C0FADA
:104650000520029002200390002004904FF4805027
:10466000059000200690022102A8FCF7FBFF13B082
:1046700000BD00004038024000700040144800684F
:1046800040F47000124908601248006840F00100D0
:104690001049086000200F49083108600D48006883
:1046A0000D4908400B4908600C48091D0860081FA7
:1046B000006820F48020091F0860002005490C31A3
:1046C00008604FF0006002498039086070470000C0
:1046D00088ED00E000380240FFFFF6FE10300024B5
:1046E00010B504462068C06820F040002168C8600A
:1046F00094F83900322803D1222084F839000EE0E2
:104700002068C06820F480702168C8602068406913
:1047100020F0010021684861012084F8390020461A
:10472000FEF785F9002010BD70B50446002694F808
:104730003960222E01D0322E52D1A068B0F5805FB0
:1047400013D1A56A206940B920684068C0F3080009
:104750002880A06A801CA06219E020684068C0B26E
:104760002880A06A401CA06211E0206938B9206846
:104770004068C1B2A26A501CA062117007E02068B4
:10478000406800F07F01A26A501CA0621170E08DA9
:10479000401E80B2E08508BB2068C06820F0200081
:1047A0002168C86094F83900322803D1122084F8B7
:1047B00039000EE02068C06820F480702168C8606D
:1047C0002068406920F0010021684861012084F8D8
:1047D00039002046FEF7B2F8002070BD0020FCE74B
:1047E0000220FAE710B50146002391F83930122B68
:1047F00001D0322B2CD18868B0F5805F0FD10A6AC6
:104800001088C0F308000C686060086918B9086A6D
:10481000801C086209E0086A401C086205E00C6A16
:10482000601C086220780C686060C88C401E80B2F2
:10483000C88458B90868C06820F080000C68E0603F
:104840000868C06840F040000C68E060002010BDBF
:104850000220FCE72DE9F04104460E4617461D46AE
:104860004FF00008FCF798FD80469FBB2BE0681CCA
:1048700048B32DB1FCF790FDA0EB0800A84222D967
:104880002068C06820F080002168C8602068C06887
:1048900020F020002168C8602068C06820F4807083
:1048A0002168C8602068406920F0010021684861E3
:1048B000012084F8390000BF002084F8380000BFD0
:1048C0000320BDE8F081206800683040B04202D18A
:1048D000012001E003E000200028C8D035E02AE0F4
:1048E000681C40B32DB1FCF757FDA0EB0800A842AF
:1048F00021D92068C06820F080002168C860206845
:10490000C06820F020002168C8602068C06820F4DA
:1049100080702168C8602068406920F0010021682B
:104920004861012084F8390000BF002084F8380075
:1049300000BF0320C5E7206800683040B04201D1C5
:10494000012000E000200028CAD10020B9E70000C3
:1049500010B50348FDF762FF014800F003F810BDF1
:10496000C004002070B5044620684068C5B2E08DE0
:10497000012801D00D2D30D1E08D401CE085A06ACA
:10498000401EA0620020A16A087014A1204600F019
:1049900027F800BF2068006800F020000028F9D147
:1049A0002068C06820F020002168C86094F83900B1
:1049B000322803D1122084F839000EE02068C06844
:1049C00020F480702168C8602068406920F00100F0
:1049D00021684861012084F8390070BD0A0D00008B
:1049E00070B506460D46002400BF2046611CCCB2BF
:1049F000285C0028F9D1601EC4B20A232246294649
:104A00003046FDF79CFF70BD03B40198410000984B
:104A100050EAC12018BF04204A0D18BF40F0010021
:104A200040F2FF72B2EB515F08BF40F00200012874
:104A300008BF052002B0704710B5B94A2DED020B32
:104A40002DED0C8B82B00F9921F000409FEDB6CB7D
:104A500090422CDBA0F140530E9AA3F17F631A43DE
:104A60000FD0B349884202DC16D10E98A0B19DED5B
:104A70000E0B02B0BDEC0C8B02B0BDE8104001F093
:104A8000ABBB0029C1BF9FEDAC0B02B0BDEC0C8BE2
:104A900002B0C8BF10BD16E0012001F0F1FB02B06A
:104AA000BDEC0C8B02B0BDE8104001F0A9BBA44ADC
:104AB0009FEDA59B9FEDA6AB90425EDAA6499FEDC8
:104AC000A8CB814208DBB0EE4C0AF0EE6C0A02B0D3
:104AD000BDEC0C8B02B010BD9DED0E0B53EC102BFA
:104AE00051EC100BFBF719FC41EC180B9E4806210A
:104AF000B0EE480AF0EE680A784401F0D6FA53ECBA
:104B0000182B51EC100BFBF708FC41EC1B0B9748E2
:104B1000B0EE480AF0EE680A0421784401F0C5FAC4
:104B200053EC182B51EC100BFBF7F7FB53EC192B44
:104B3000FBF74CFB41EC100B51EC1B0B53EC102B17
:104B4000FBF75DFC41EC100B53EC102B9DED0E0BB5
:104B500051EC100BFBF7E1FB53EC1A2BFBF7DAFBE4
:104B60009DED0E1B53EC112BFBF7D4FB53EC1C2BD0
:104B7000FBF7D0FB41EC100BA9E79FED7D8B9FED80
:104B80007EBB9DED0E0B002953EC192B51EC100B45
:104B900052DAFBF71BFB53EC182BFBF7BEFB41EC87
:104BA000180B77480621B0EE480AF0EE680A784400
:104BB00001F07BFA53EC182B51EC100BFBF7ADFB1B
:104BC00041EC1D0B6F48B0EE480AF0EE680A042174
:104BD000784401F06AFA53EC182B51EC100BFBF7F8
:104BE0009CFB53EC192BFBF7F1FA41EC190B51EC40
:104BF000180B01F043FE41EC180B53EC192B51EC50
:104C00001D0BFBF7FCFB53EC182BFBF786FB53EC5F
:104C10001A2BFBF77CFB41EC100B51EC180B53ECFF
:104C2000102BFBF7D3FA53EC1B2BFBF776FB53EC63
:104C30001C2BFBF76FFB6DE0FBF76CFB53EC182BA9
:104C4000FBF76BFB41EC180B01F018FE41EC1A0B63
:104C500000208DED00AB00909DED000B51EC1A0B88
:104C600053EC102BFBF7B2FA9DED000B41EC1C0B43
:104C700053EC102B51EC100BFBF74FFB53EC182BA4
:104C8000FBF748FB53EC1C2BFBF7B9FB41EC1C0B6F
:104C90003D48B0EE480AF0EE680A0621784401F07B
:104CA00004FA53EC182B51EC100BFBF736FB41ECDC
:104CB0001D0B3648B0EE480AF0EE680A042178442D
:104CC00001F0F3F953EC182B51EC100BFBF725FB1B
:104CD00053EC192BFBF77AFA41EC100B51EC1D0B3E
:104CE00053EC102BFBF78BFB53EC1A2BFBF715FB4C
:104CF00053EC1C2BFBF76AFA41EC100B53EC102B16
:104D00009DED000B51EC100BFBF760FA53EC1B2BE5
:104D1000FBF703FB41EC100BD9E60000000000009C
:104D20000000F03F00000000182D4454FB21094012
:104D30000000F07F00000000000000000000000004
:104D40000000E03F00000000000000000000F03F15
:104D5000075C143326A6913C0000603C0000000074
:104D6000182D4454FB21F93FDC230000EA23000006
:104D7000000000000000E03F0000000000000040D4
:104D800026230000342300003822000046220000C1
:104D900070B5C1482DED020B2DED0E8B82B0119D2B
:104DA00025F000449FEDBEDB9FEDBFEB84423EDB70
:104DB000A4F140511098A1F17F6108430FD0BC4885
:104DC000844202DC28D1109830B39DED100B02B064
:104DD000BDEC0E8B02B0BDE8704001F0FDB99DED59
:104DE000100B53EC1D2B51EC100BFBF796FA9DEDBD
:104DF000100B41EC180B53EC1E2B51EC100BFBF776
:104E00008CFA53EC182BFBF7E1F941EC100B02B0D4
:104E1000BDEC0E8B02B070BD012001F031FA02B082
:104E2000BDEC0E8B02B0BDE8704001F0E9B9A148BD
:104E30009FEDA18B844256DA9DED100BB4F1795FA2
:104E40000ADA51EC100BFFF7DFFD042808BF01F070
:104E5000F7F99DED100BDAE753EC102B51EC100B2A
:104E6000FBF75BFA41EC190B95480621B0EE490AB5
:104E7000F0EE690A784401F018F953EC192B51EC63
:104E8000100BFBF74AFA41EC1A0B8E48B0EE490AB8
:104E9000F0EE690A0421784401F007F953EC192B6C
:104EA00051EC100BFBF739FA53EC182BFBF78EF98A
:104EB00041EC100B51EC1A0B53EC102BFBF79FFA43
:104EC000CDE900019DED000B53EC102B9DED100B77
:104ED00051EC100BFBF721FA9DED101B53EC112B3D
:104EE000FBF774F9D2E09DED100B51EC100B01F0C3
:104EF000C7FB53EC182BFBF70DFA9FED730BCDE9B5
:104F0000000153EC102B9DED000B51EC100BFBF747
:104F100004FA41EC190B6E480621B0EE490AF0EE96
:104F2000690A784401F0C1F853EC192B51EC100BCD
:104F3000FBF7F3F941EC1B0B6648B0EE490AF0EEC3
:104F4000690A0421784401F0B0F853EC192B51ECB4
:104F5000100BFBF7E2F953EC182BFBF737F941EC98
:104F60001C0B51EC190B01F089FC41EC180B5A4851
:104F70009FED5BABA04222DC53EC1C2B51EC1B0BD6
:104F8000FBF73DFACDE900019DED000B51EC180B4C
:104F900053EC102BFBF7C1F953EC182BFBF716F968
:104FA00053EC1A2BFBF7B9F953EC1D2BFBF7AFF9B8
:104FB00053EC1E2BFBF7AEF941EC100B5FE08DEDCF
:104FC000008B002000909DED000B51EC180B53EC72
:104FD000102BFBF7FBF89DED000B41EC1E0B53EC87
:104FE000102B51EC100BFBF798F953EC192BFBF736
:104FF00091F953EC1E2BFBF702FA41EC190B53EC21
:105000001C2B51EC1B0BFBF7FAF941EC1B0B53EC7F
:105010001A2B51EC190BFBF780F953EC1D2BFBF706
:1050200079F941EC190B53EC1A2B51EC180BFBF7E7
:1050300074F953EC1B2BFBF770F953EC192BFBF7AE
:1050400066F99DED000B41EC180B53EC1A2B51EC5B
:10505000100BFBF762F99FED249B53EC192BFBF728
:1050600059F941EC100B51EC180B53EC102BFBF7DA
:105070004EF953EC192BFBF74DF941EC100B002DB9
:105080003FF7C5AE51EC100B81F0004141EC100B25
:10509000BDE60000000000000000F03F000000003E
:1050A000075C143326A6913C182D4454FB21F93F8C
:1050B0000000F07F0000E03F000000000000F03F33
:1050C000B0200000BE200000000000000000E03F13
:1050D00002200000102000003333EF3F00000000EA
:1050E0000000000000000040182D4454FB21E93F5F
:1050F00070B59B482DED020B2DED068B079D25F01D
:105100000044A04218DC9748844202DC0AD1069889
:1051100040B19DED060BBDEC068B02B0BDE87040C2
:1051200001F05AB8002DCCBF9FED8F0B9FED900B77
:10513000BDEC068B02B070BD8F48A04215DD8F48D4
:10514000A042D8BF4FF0FF3458DD9DED060B51EC67
:10515000100BFFF759FC042808BF01F071F89DED12
:10516000060BBDEC068B02B070BD9DED060B51EC3D
:10517000100B01F085FACDE9060181489FED828B85
:10518000A0423CDD8248A0421FDD00249FED82AB9F
:105190009DED060B53EC1A2B51EC100BFBF716F898
:1051A0009DED060B41EC190B53EC1A2B51EC100B37
:1051B000FBF7B3F853EC182BFBF7A9F853EC192BBA
:1051C000FBF71DF9CDE9060149E09DED060B012431
:1051D00053EC182B51EC100BFAF7F8FF9DED060B72
:1051E00041EC190B53EC182B51EC100BFBF78FF81B
:1051F00053EC192BFBF703F9CDE906012FE06848C2
:10520000A0421FDD02249FED689B9DED060B53EC31
:10521000192B51EC100BFBF780F853EC182BFAF715
:10522000D5FF9DED060B41EC180B53EC192B51ECFF
:10523000100BFBF76CF853EC182BFBF7E0F8CDE9FB
:1052400006010CE09DED060B032453EC102B9FEDA3
:10525000580B51EC100BFBF7D2F8CDE906019DED90
:10526000060B53EC102B51EC100BFBF756F841ECEE
:10527000180B53EC182BFBF750F841EC190B4E4868
:105280000621B0EE490AF0EE690A784400F00DFFFD
:1052900053EC182B51EC100BFBF73FF841EC180BBB
:1052A0004648B0EE490AF0EE690A0521784400F05C
:1052B000FCFE53EC192B51EC100BFBF72EF841ECD4
:1052C000100B51EC180B53EC102B002C0EDAFAF7E4
:1052D0007DFF9DED061B53EC112BFBF71EF89DED9A
:1052E000061B53EC112BFBF715F835E0FAF76EFFB0
:1052F0009DED061B53EC112BFBF70FF841EC100B47
:105300002F48784400EBC40090ED001B51EC100BCB
:1053100053EC112BFAF7FBFF9DED061B53EC112B01
:10532000FAF7F5FF41EC100B2648784400EBC40077
:1053300090ED001B51EC100B53EC112BFAF7EAFF28
:1053400041EC100B002DA2BFBDEC068B02B070BD6E
:1053500051EC100B81F0004141EC100B01E7000013
:10536000000010440000F07F182D4454FB21F93F49
:10537000182D4454FB21F9BF0000DC3F0000203E03
:105380000000F33F00000000000000000000F03FBC
:105390000000E63F000000000000000000000040A8
:1053A0000080034000000000000000000000F83F03
:1053B000000000000000F0BF521D0000081D0000AA
:1053C000921C00004A1C00002DED020B019820F0F9
:1053D000004001909DED000B02B0704700000000FE
:1053E0002DE9F04D2DED040B2DED0E8B96B0DDE982
:1053F0002550279CDDF890A025F0004624F00048B9
:10540000BAF1000F14BF0121002101EB4502FC4954
:1054100053184A1093422AD3002814BF01230023B3
:1054200003EB44030B44F7498B4220D358EA0001B5
:105430009FEDF59B76D0DFF8D8B35D4503D1BAF187
:10544000000F05D188E0BAF1000F08BF002100D09D
:10545000012101EB450111F5001F08D8002814BFF8
:105460000121002101EB440111F5001F0BD99DED35
:10547000261B9DED240B16B0BDEC0E8B04B0BDE8D1
:10548000F04D00F0B3BE0027002DBCBFE1498845B8
:1054900021DAE1498845A8BF02271CDAC3451ADC96
:1054A000DE4901EB2851142908DDC1F1340220FA4C
:1054B00002F101FA02F282420DD108E058B9C1F1BD
:1054C000140228FA02F101FA02F2424503D101F076
:1054D0000101C1F1020756EA0A0124D1002C22DAA7
:1054E000002D18BF022F01D0012F0AD0022000F09A
:1054F000C7FE16B0BDEC0E8B04B0BDE8F04D00F059
:1055000053BE022000F0BCFE00F04EFE51EC100B2A
:1055100081F0004141EC100B16B0BDEC0E8B04B0D5
:10552000BDE8F08D18E09FEDBEAB9FEDBF8B00286E
:1055300071D1B848804522D105F1804010F5801026
:1055400008BFBAF1000F07D0B3450ADC002CA8BF92
:105550009DED260BE0DA0DE0B0EE490AF0EE690AA7
:10556000DAE7002C06DA9DED260B51EC100B81F0EA
:1055700000416FE0AE48784490ED000BCCE7D84591
:105580004DD1002C48DA2EB186423AD1BAF1000F43
:1055900042D126E0BAF1000F13D0022000F070FED5
:1055A00000F03EFE8DED020B9DED240B8DED000B0A
:1055B00010EE900A039961F31E0003909DED020B1B
:1055C000AAE78DED02AB9DED240B1AEE901A10EEBA
:1055D000900A8DED000B61F31E0003909DED020B10
:1055E0009AE78DED028B9DED240B18EE901A10EECC
:1055F000900A8DED000B61F31E0003909DED020BF0
:105600008AE709DA9DED240B51EC190B53EC102BB2
:10561000FAF7F5FE1EE020E09DED240B7CE78642C4
:105620001BDAB4F1804F0DD0A4F10050B0F1FF505F
:1056300013D1002D11DB9DED240B51EC100B01F06B
:105640001DF907E09DED240B53EC102B51EC100BD2
:1056500000F0C2BC41EC100B5EE79DED240B51EC59
:10566000100B01F00DF8BAF1000FCDE90E0142D197
:105670009FED710B46B3A6F1E040B0F17F600CD016
:105680005E4538D1002D00DAA7B3022F0CBF0120F0
:105690004FF0FF30FBF7CFF8DCE7002D01DD002CE9
:1056A0000DDA002D01DD002C1FDB002D16DA002C99
:1056B00014DB012F08BF9FED620B3FF42DAFB0EE5E
:1056C0004A0AF0EE6A0A27E7022F18BF002D0CD015
:1056D000012F0AD1002DFFF61FAF06E0002DB8BF45
:1056E000002C08DA012F3FF417AFB0EE480AF0EEB5
:1056F000680A11E71BE0012000EBE57050EA0701A2
:1057000015D0791EB0EE498AF0EE698A084308BFC9
:105710009FED4D8B4E480025804570DD4D494E482C
:10572000884514DDB0420DDB002C19DB2FE0012091
:1057300000F0A6FD16B0BDEC0E8B04B0BDE8F04D38
:1057400000F05EBDB34502DC002C09DC1FE08642A0
:1057500002DA002C1BDA03E05E452BDD002C16DD9F
:10576000022000F08DFD00F05BFD8DED020B53EC8F
:105770001A2B51EC180BFAF7D0FDCDE90001039973
:10578000019861F31E0003909DED020BC4E6022018
:1057900000F076FD00F054FD10EE901A18EE900A1D
:1057A0008DED020B8DED008B61F31E0003909DEDDE
:1057B000020BB1E69DED0E0B53EC192B51EC100BC7
:1057C000FAF7A5FD9FED260BCDE9080153EC102B50
:1057D0009DED080B51EC100BFAF79FFD9FED221B7E
:1057E00053EC112BFAF796FD9DED081B53EC112B92
:1057F000FAF793FD9FED1E1B53EC112B3CE08CE060
:10580000FFFF1F00FFFF0F00000000000000F03F3F
:105810000000F03F0000F07F0000404301FCFFFF6C
:10582000000000000000F07F000000000000000009
:105830001E1B0000000000000000000000000080AF
:10584000000000000000F0FF000000000000F0BFBA
:105850000000E0410000F043FFFFEF3F00000000C8
:10586000000000000000D03F555555555555D53F17
:10587000000000000000E03FFAF74CFD9DED080B32
:1058800041EC1A0B53EC102B51EC100BFAF745FDC1
:1058900053EC1A2BFAF741FD41EC1A0B9FEDFE0B6E
:1058A00053EC102B9DED080B51EC100BFAF735FD66
:1058B00041EC1B0B9FEDFA0B51EC1A0B53EC102B28
:1058C000FAF72BFD41EC1A0B9FEDF70B53EC102B65
:1058D0009DED080B51EC100BFAF71FFD53EC1A2B42
:1058E000FAF715FD41EC1A0B51EC1B0B53EC1A2B7C
:1058F000FAF76CFC0690CDE906519DED060B53ECD2
:105900001B2B51EC100BFAF702FD53EC1A2BFAF794
:1059100001FD41EC100B00F0A1B90020B6F5801F8D
:105920000EDA9FEDE30B53EC102B9DED0E0B51ECBB
:10593000100BFAF7F2FCCDE90E016FF034000E46C1
:1059400000EB2650A0F2FF37C6F31300DA4940F00F
:105950007F6646F040568842D8BF002408DDD7490C
:105960008142C8BF012403DC0024A6F580167F1CF9
:10597000D348784400EBC4000F9690ED00CB9DED2A
:105980000E0B53EC1C2B51EC100BFAF7C0FC9DEDE9
:105990000E0B41EC1B0B53EC1C2B51EC100BFAF7CC
:1059A00015FC41EC100B51EC190B53EC102BFAF7D2
:1059B00026FD41EC1D0B51EC1B0B53EC1D2BFAF794
:1059C000ACFC41EC1A0BBF488DED10AB7844109540
:1059D00090ED000B4FF0005040EA660000EB844071
:1059E0008DED080B00F5002009909DED080B53ECA0
:1059F0001C2B51EC100BFAF78AFC9DED0E1B53EC9F
:105A0000112BFAF787FC41EC100B53EC102B9DED9A
:105A1000100B51EC100BFAF780FC9DED080B41ECDC
:105A20001C0B53EC102B9DED100B51EC100BFAF7E7
:105A300074FC53EC1B2BFAF76DFC53EC1C2BFAF7A0
:105A400066FC53EC1D2BFAF768FC41EC1C0B53EC85
:105A50001A2B51EC1A0BFAF760FC41EC1B0B9A481D
:105A60000621B0EE4B0AF0EE6B0A784400F01DFB05
:105A7000B0EE401AF0EE601AB0EE41DAF0EE61DA04
:105A800053EC1B2B51EC1B0BFAF747FC53EC1D2B73
:105A9000FAF743FC9DED100B41EC1B0B53EC1A2B5A
:105AA00051EC100BFAF792FB53EC1C2BFAF735FC78
:105AB00053EC1B2BFAF78AFB9DED100B41EC1B0BF3
:105AC00053EC102B51EC100BFAF727FC41EC1D0B9B
:105AD0009FED7FEB53EC1E2BFAF778FB53EC1B2B5F
